{
  "_format": "hh-sol-artifact-1",
  "contractName": "L1Auction",
  "sourceName": "contracts/L1Auction.sol",
  "abi": [
    {
      "inputs": [
        {
          "internalType": "address",
          "name": "_claimableToken",
          "type": "address"
        },
        {
          "internalType": "address",
          "name": "_l1Oracle",
          "type": "address"
        }
      ],
      "stateMutability": "nonpayable",
      "type": "constructor"
    },
    {
      "inputs": [
        {
          "internalType": "uint256",
          "name": "tokenId",
          "type": "uint256"
        }
      ],
      "name": "buy",
      "outputs": [],
      "stateMutability": "nonpayable",
      "type": "function"
    },
    {
      "inputs": [],
      "name": "claimableToken",
      "outputs": [
        {
          "internalType": "contract L1ClaimableToken",
          "name": "",
          "type": "address"
        }
      ],
      "stateMutability": "view",
      "type": "function"
    },
    {
      "inputs": [],
      "name": "l1Oracle",
      "outputs": [
        {
          "internalType": "address",
          "name": "",
          "type": "address"
        }
      ],
      "stateMutability": "view",
      "type": "function"
    }
  ],
  "bytecode": "0x608060405234801561001057600080fd5b50604051610ace380380610ace833981810160405281019061003291906100cf565b816000806101000a81548173ffffffffffffffffffffffffffffffffffffffff021916908373ffffffffffffffffffffffffffffffffffffffff16021790555080600160006101000a81548173ffffffffffffffffffffffffffffffffffffffff021916908373ffffffffffffffffffffffffffffffffffffffff1602179055505050610154565b6000815190506100c98161013d565b92915050565b600080604083850312156100e257600080fd5b60006100f0858286016100ba565b9250506020610101858286016100ba565b9150509250929050565b60006101168261011d565b9050919050565b600073ffffffffffffffffffffffffffffffffffffffff82169050919050565b6101468161010b565b811461015157600080fd5b50565b61096b806101636000396000f3fe608060405234801561001057600080fd5b50600436106100415760003560e01c80630216342514610046578063d96a094a14610064578063f6d6d5aa14610080575b600080fd5b61004e61009e565b60405161005b919061071e565b60405180910390f35b61007e6004803603810190610079919061055b565b6100c4565b005b610088610491565b60405161009591906107a7565b60405180910390f35b600160009054906101000a900473ffffffffffffffffffffffffffffffffffffffff1681565b60008060009054906101000a900473ffffffffffffffffffffffffffffffffffffffff1673ffffffffffffffffffffffffffffffffffffffff16636352211e836040518263ffffffff1660e01b81526004016101209190610822565b60206040518083038186803b15801561013857600080fd5b505afa15801561014c573d6000803e3d6000fd5b505050506040513d601f19601f820116820180604052508101906101709190610509565b9050600160009054906101000a900473ffffffffffffffffffffffffffffffffffffffff1673ffffffffffffffffffffffffffffffffffffffff168173ffffffffffffffffffffffffffffffffffffffff1614610202576040517f08c379a00000000000000000000000000000000000000000000000000000000081526004016101f9906107e2565b60405180910390fd5b60008060008060008060008060009054906101000a900473ffffffffffffffffffffffffffffffffffffffff1673ffffffffffffffffffffffffffffffffffffffff16637c13774b8a6040518263ffffffff1660e01b81526004016102679190610822565b60e06040518083038186803b15801561027f57600080fd5b505afa158015610293573d6000803e3d6000fd5b505050506040513d601f19601f820116820180604052508101906102b79190610584565b9650965096509650965096509650888714610307576040517f08c379a00000000000000000000000000000000000000000000000000000000081526004016102fe90610802565b60405180910390fd5b8373ffffffffffffffffffffffffffffffffffffffff166323b872dd3387856040518463ffffffff1660e01b815260040161034493929190610739565b602060405180830381600087803b15801561035e57600080fd5b505af1158015610372573d6000803e3d6000fd5b505050506040513d601f19601f820116820180604052508101906103969190610532565b6103d5576040517f08c379a00000000000000000000000000000000000000000000000000000000081526004016103cc906107c2565b60405180910390fd5b60008054906101000a900473ffffffffffffffffffffffffffffffffffffffff1673ffffffffffffffffffffffffffffffffffffffff166342842e0e600160009054906101000a900473ffffffffffffffffffffffffffffffffffffffff16338c6040518463ffffffff1660e01b815260040161045493929190610770565b600060405180830381600087803b15801561046e57600080fd5b505af1158015610482573d6000803e3d6000fd5b50505050505050505050505050565b60008054906101000a900473ffffffffffffffffffffffffffffffffffffffff1681565b6000815190506104c4816108f0565b92915050565b6000815190506104d981610907565b92915050565b6000813590506104ee8161091e565b92915050565b6000815190506105038161091e565b92915050565b60006020828403121561051b57600080fd5b6000610529848285016104b5565b91505092915050565b60006020828403121561054457600080fd5b6000610552848285016104ca565b91505092915050565b60006020828403121561056d57600080fd5b600061057b848285016104df565b91505092915050565b600080600080600080600060e0888a03121561059f57600080fd5b60006105ad8a828b016104f4565b97505060206105be8a828b016104f4565b96505060406105cf8a828b016104b5565b95505060606105e08a828b016104b5565b94505060806105f18a828b016104b5565b93505060a06106028a828b016104f4565b92505060c06106138a828b016104f4565b91505092959891949750929550565b61062b81610896565b82525050565b61063a8161084e565b82525050565b610649816108a8565b82525050565b600061065c60108361083d565b91507f5452414e534645525f4641494c555245000000000000000000000000000000006000830152602082019050919050565b600061069c600d8361083d565b91507f494e56414c49445f4f574e4552000000000000000000000000000000000000006000830152602082019050919050565b60006106dc600f8361083d565b91507f494e56414c49445f544f4b454e494400000000000000000000000000000000006000830152602082019050919050565b6107188161088c565b82525050565b60006020820190506107336000830184610631565b92915050565b600060608201905061074e6000830186610622565b61075b6020830185610631565b610768604083018461070f565b949350505050565b60006060820190506107856000830186610631565b6107926020830185610622565b61079f604083018461070f565b949350505050565b60006020820190506107bc6000830184610640565b92915050565b600060208201905081810360008301526107db8161064f565b9050919050565b600060208201905081810360008301526107fb8161068f565b9050919050565b6000602082019050818103600083015261081b816106cf565b9050919050565b6000602082019050610837600083018461070f565b92915050565b600082825260208201905092915050565b60006108598261086c565b9050919050565b60008115159050919050565b600073ffffffffffffffffffffffffffffffffffffffff82169050919050565b6000819050919050565b60006108a1826108cc565b9050919050565b60006108b3826108ba565b9050919050565b60006108c58261086c565b9050919050565b60006108d7826108de565b9050919050565b60006108e98261086c565b9050919050565b6108f98161084e565b811461090457600080fd5b50565b61091081610860565b811461091b57600080fd5b50565b6109278161088c565b811461093257600080fd5b5056fea264697066735822122052255f685cd923b1b0097372b8393f546ff1f61bbc75a496efb2679829b60e6d64736f6c63430007060033",
  "linkReferences": {},
  "deployedLinkReferences": {}
}