{
  "_format": "hh-sol-artifact-1",
  "contractName": "L1ClaimableToken",
  "sourceName": "contracts/L1ClaimableToken.sol",
  "abi": [
    {
      "inputs": [
        {
          "internalType": "string",
          "name": "name",
          "type": "string"
        },
        {
          "internalType": "string",
          "name": "symbol",
          "type": "string"
        }
      ],
      "stateMutability": "nonpayable",
      "type": "constructor"
    },
    {
      "anonymous": false,
      "inputs": [
        {
          "indexed": true,
          "internalType": "address",
          "name": "owner",
          "type": "address"
        },
        {
          "indexed": true,
          "internalType": "address",
          "name": "approved",
          "type": "address"
        },
        {
          "indexed": true,
          "internalType": "uint256",
          "name": "tokenId",
          "type": "uint256"
        }
      ],
      "name": "Approval",
      "type": "event"
    },
    {
      "anonymous": false,
      "inputs": [
        {
          "indexed": true,
          "internalType": "address",
          "name": "owner",
          "type": "address"
        },
        {
          "indexed": true,
          "internalType": "address",
          "name": "operator",
          "type": "address"
        },
        {
          "indexed": false,
          "internalType": "bool",
          "name": "approved",
          "type": "bool"
        }
      ],
      "name": "ApprovalForAll",
      "type": "event"
    },
    {
      "anonymous": false,
      "inputs": [
        {
          "indexed": true,
          "internalType": "uint256",
          "name": "tokenId",
          "type": "uint256"
        },
        {
          "indexed": true,
          "internalType": "uint256",
          "name": "l2TxIndex",
          "type": "uint256"
        }
      ],
      "name": "Minted",
      "type": "event"
    },
    {
      "anonymous": false,
      "inputs": [
        {
          "indexed": true,
          "internalType": "address",
          "name": "from",
          "type": "address"
        },
        {
          "indexed": true,
          "internalType": "address",
          "name": "to",
          "type": "address"
        },
        {
          "indexed": true,
          "internalType": "uint256",
          "name": "tokenId",
          "type": "uint256"
        }
      ],
      "name": "Transfer",
      "type": "event"
    },
    {
      "inputs": [
        {
          "internalType": "address",
          "name": "to",
          "type": "address"
        },
        {
          "internalType": "uint256",
          "name": "tokenId",
          "type": "uint256"
        }
      ],
      "name": "approve",
      "outputs": [],
      "stateMutability": "nonpayable",
      "type": "function"
    },
    {
      "inputs": [
        {
          "internalType": "address",
          "name": "owner",
          "type": "address"
        }
      ],
      "name": "balanceOf",
      "outputs": [
        {
          "internalType": "uint256",
          "name": "",
          "type": "uint256"
        }
      ],
      "stateMutability": "view",
      "type": "function"
    },
    {
      "inputs": [],
      "name": "baseURI",
      "outputs": [
        {
          "internalType": "string",
          "name": "",
          "type": "string"
        }
      ],
      "stateMutability": "view",
      "type": "function"
    },
    {
      "inputs": [
        {
          "internalType": "uint256",
          "name": "tokenId",
          "type": "uint256"
        }
      ],
      "name": "getApproved",
      "outputs": [
        {
          "internalType": "address",
          "name": "",
          "type": "address"
        }
      ],
      "stateMutability": "view",
      "type": "function"
    },
    {
      "inputs": [
        {
          "internalType": "address",
          "name": "owner",
          "type": "address"
        },
        {
          "internalType": "address",
          "name": "operator",
          "type": "address"
        }
      ],
      "name": "isApprovedForAll",
      "outputs": [
        {
          "internalType": "bool",
          "name": "",
          "type": "bool"
        }
      ],
      "stateMutability": "view",
      "type": "function"
    },
    {
      "inputs": [
        {
          "internalType": "uint256",
          "name": "tokenId",
          "type": "uint256"
        },
        {
          "internalType": "uint256",
          "name": "transactionIndex",
          "type": "uint256"
        },
        {
          "internalType": "address",
          "name": "origin",
          "type": "address"
        },
        {
          "internalType": "address",
          "name": "l1Token",
          "type": "address"
        },
        {
          "internalType": "address",
          "name": "l2Token",
          "type": "address"
        },
        {
          "internalType": "uint256",
          "name": "amount",
          "type": "uint256"
        },
        {
          "internalType": "uint256",
          "name": "fee",
          "type": "uint256"
        }
      ],
      "name": "mint",
      "outputs": [],
      "stateMutability": "nonpayable",
      "type": "function"
    },
    {
      "inputs": [],
      "name": "name",
      "outputs": [
        {
          "internalType": "string",
          "name": "",
          "type": "string"
        }
      ],
      "stateMutability": "view",
      "type": "function"
    },
    {
      "inputs": [],
      "name": "owner",
      "outputs": [
        {
          "internalType": "address",
          "name": "",
          "type": "address"
        }
      ],
      "stateMutability": "view",
      "type": "function"
    },
    {
      "inputs": [
        {
          "internalType": "uint256",
          "name": "tokenId",
          "type": "uint256"
        }
      ],
      "name": "ownerOf",
      "outputs": [
        {
          "internalType": "address",
          "name": "",
          "type": "address"
        }
      ],
      "stateMutability": "view",
      "type": "function"
    },
    {
      "inputs": [
        {
          "internalType": "address",
          "name": "from",
          "type": "address"
        },
        {
          "internalType": "address",
          "name": "to",
          "type": "address"
        },
        {
          "internalType": "uint256",
          "name": "tokenId",
          "type": "uint256"
        }
      ],
      "name": "safeTransferFrom",
      "outputs": [],
      "stateMutability": "nonpayable",
      "type": "function"
    },
    {
      "inputs": [
        {
          "internalType": "address",
          "name": "from",
          "type": "address"
        },
        {
          "internalType": "address",
          "name": "to",
          "type": "address"
        },
        {
          "internalType": "uint256",
          "name": "tokenId",
          "type": "uint256"
        },
        {
          "internalType": "bytes",
          "name": "_data",
          "type": "bytes"
        }
      ],
      "name": "safeTransferFrom",
      "outputs": [],
      "stateMutability": "nonpayable",
      "type": "function"
    },
    {
      "inputs": [
        {
          "internalType": "address",
          "name": "operator",
          "type": "address"
        },
        {
          "internalType": "bool",
          "name": "approved",
          "type": "bool"
        }
      ],
      "name": "setApprovalForAll",
      "outputs": [],
      "stateMutability": "nonpayable",
      "type": "function"
    },
    {
      "inputs": [
        {
          "internalType": "bytes4",
          "name": "interfaceId",
          "type": "bytes4"
        }
      ],
      "name": "supportsInterface",
      "outputs": [
        {
          "internalType": "bool",
          "name": "",
          "type": "bool"
        }
      ],
      "stateMutability": "view",
      "type": "function"
    },
    {
      "inputs": [],
      "name": "symbol",
      "outputs": [
        {
          "internalType": "string",
          "name": "",
          "type": "string"
        }
      ],
      "stateMutability": "view",
      "type": "function"
    },
    {
      "inputs": [
        {
          "internalType": "uint256",
          "name": "index",
          "type": "uint256"
        }
      ],
      "name": "tokenByIndex",
      "outputs": [
        {
          "internalType": "uint256",
          "name": "",
          "type": "uint256"
        }
      ],
      "stateMutability": "view",
      "type": "function"
    },
    {
      "inputs": [
        {
          "internalType": "uint256",
          "name": "",
          "type": "uint256"
        }
      ],
      "name": "tokenInfos",
      "outputs": [
        {
          "internalType": "uint256",
          "name": "tokenId",
          "type": "uint256"
        },
        {
          "internalType": "uint256",
          "name": "transactionIndex",
          "type": "uint256"
        },
        {
          "internalType": "address",
          "name": "origin",
          "type": "address"
        },
        {
          "internalType": "address",
          "name": "l1Token",
          "type": "address"
        },
        {
          "internalType": "address",
          "name": "l2Token",
          "type": "address"
        },
        {
          "internalType": "uint256",
          "name": "amount",
          "type": "uint256"
        },
        {
          "internalType": "uint256",
          "name": "fee",
          "type": "uint256"
        }
      ],
      "stateMutability": "view",
      "type": "function"
    },
    {
      "inputs": [
        {
          "internalType": "address",
          "name": "owner",
          "type": "address"
        },
        {
          "internalType": "uint256",
          "name": "index",
          "type": "uint256"
        }
      ],
      "name": "tokenOfOwnerByIndex",
      "outputs": [
        {
          "internalType": "uint256",
          "name": "",
          "type": "uint256"
        }
      ],
      "stateMutability": "view",
      "type": "function"
    },
    {
      "inputs": [
        {
          "internalType": "uint256",
          "name": "tokenId",
          "type": "uint256"
        }
      ],
      "name": "tokenURI",
      "outputs": [
        {
          "internalType": "string",
          "name": "",
          "type": "string"
        }
      ],
      "stateMutability": "view",
      "type": "function"
    },
    {
      "inputs": [],
      "name": "totalSupply",
      "outputs": [
        {
          "internalType": "uint256",
          "name": "",
          "type": "uint256"
        }
      ],
      "stateMutability": "view",
      "type": "function"
    },
    {
      "inputs": [
        {
          "internalType": "address",
          "name": "from",
          "type": "address"
        },
        {
          "internalType": "address",
          "name": "to",
          "type": "address"
        },
        {
          "internalType": "uint256",
          "name": "tokenId",
          "type": "uint256"
        }
      ],
      "name": "transferFrom",
      "outputs": [],
      "stateMutability": "nonpayable",
      "type": "function"
    },
    {
      "inputs": [
        {
          "internalType": "address",
          "name": "newOwner",
          "type": "address"
        }
      ],
      "name": "transferOwnership",
      "outputs": [],
      "stateMutability": "nonpayable",
      "type": "function"
    }
  ],
  "bytecode": "0x60806040523480156200001157600080fd5b506040516200337638038062003376833981810160405281019062000037919062000347565b8181620000516301ffc9a760e01b6200011660201b60201c565b8160069080519060200190620000699291906200021f565b508060079080519060200190620000829291906200021f565b506200009b6380ac58cd60e01b6200011660201b60201c565b620000b3635b5e139f60e01b6200011660201b60201c565b620000cb63780e9d6360e01b6200011660201b60201c565b505033600b60006101000a81548173ffffffffffffffffffffffffffffffffffffffff021916908373ffffffffffffffffffffffffffffffffffffffff160217905550505062000459565b63ffffffff60e01b817bffffffffffffffffffffffffffffffffffffffffffffffffffffffff19161415620001b3576040517f08c379a000000000000000000000000000000000000000000000000000000000815260040180806020018281038252601c8152602001807f4552433136353a20696e76616c696420696e746572666163652069640000000081525060200191505060405180910390fd5b6001600080837bffffffffffffffffffffffffffffffffffffffffffffffffffffffff19167bffffffffffffffffffffffffffffffffffffffffffffffffffffffff1916815260200190815260200160002060006101000a81548160ff02191690831515021790555050565b828054600181600116156101000203166002900490600052602060002090601f016020900481019282620002575760008555620002a3565b82601f106200027257805160ff1916838001178555620002a3565b82800160010185558215620002a3579182015b82811115620002a257825182559160200191906001019062000285565b5b509050620002b29190620002b6565b5090565b5b80821115620002d1576000816000905550600101620002b7565b5090565b6000620002ec620002e684620003ee565b620003ba565b9050828152602081018484840111156200030557600080fd5b6200031284828562000421565b509392505050565b600082601f8301126200032c57600080fd5b81516200033e848260208601620002d5565b91505092915050565b600080604083850312156200035b57600080fd5b600083015167ffffffffffffffff8111156200037657600080fd5b62000384858286016200031a565b925050602083015167ffffffffffffffff811115620003a257600080fd5b620003b0858286016200031a565b9150509250929050565b6000604051905081810181811067ffffffffffffffff82111715620003e457620003e362000457565b5b8060405250919050565b600067ffffffffffffffff8211156200040c576200040b62000457565b5b601f19601f8301169050602081019050919050565b60005b838110156200044157808201518184015260208101905062000424565b8381111562000451576000848401525b50505050565bfe5b612f0d80620004696000396000f3fe608060405234801561001057600080fd5b50600436106101375760003560e01c80636c0360eb116100b8578063a22cb4651161007c578063a22cb4651461037c578063b88d4fde14610398578063c87b56dd146103b4578063cf755689146103e4578063e985e9c514610400578063f2fde38b1461043057610137565b80636c0360eb146102bc57806370a08231146102da5780637c13774b1461030a5780638da5cb5b1461034057806395d89b411461035e57610137565b806323b872dd116100ff57806323b872dd146101f45780632f745c591461021057806342842e0e146102405780634f6ccce71461025c5780636352211e1461028c57610137565b806301ffc9a71461013c57806306fdde031461016c578063081812fc1461018a578063095ea7b3146101ba57806318160ddd146101d6575b600080fd5b61015660048036038101906101519190612850565b61044c565b6040516101639190612a01565b60405180910390f35b6101746104b3565b6040516101819190612a1c565b60405180910390f35b6101a4600480360381019061019f9190612879565b610555565b6040516101b191906129e6565b60405180910390f35b6101d460048036038101906101cf9190612814565b6105f0565b005b6101de610734565b6040516101eb9190612a5e565b60405180910390f35b61020e6004803603810190610209919061270e565b610745565b005b61022a60048036038101906102259190612814565b6107bb565b6040516102379190612a5e565b60405180910390f35b61025a6004803603810190610255919061270e565b610816565b005b61027660048036038101906102719190612879565b610836565b6040516102839190612a5e565b60405180910390f35b6102a660048036038101906102a19190612879565b610859565b6040516102b391906129e6565b60405180910390f35b6102c4610890565b6040516102d19190612a1c565b60405180910390f35b6102f460048036038101906102ef91906126a9565b610932565b6040516103019190612a5e565b60405180910390f35b610324600480360381019061031f9190612879565b610a07565b6040516103379796959493929190612a79565b60405180910390f35b610348610aa9565b60405161035591906129e6565b60405180910390f35b610366610acf565b6040516103739190612a1c565b60405180910390f35b610396600480360381019061039191906127d8565b610b71565b005b6103b260048036038101906103ad919061275d565b610d27565b005b6103ce60048036038101906103c99190612879565b610d9f565b6040516103db9190612a1c565b60405180910390f35b6103fe60048036038101906103f991906128a2565b611070565b005b61041a600480360381019061041591906126d2565b611246565b6040516104279190612a01565b60405180910390f35b61044a600480360381019061044591906126a9565b6112da565b005b6000806000837bffffffffffffffffffffffffffffffffffffffffffffffffffffffff19167bffffffffffffffffffffffffffffffffffffffffffffffffffffffff1916815260200190815260200160002060009054906101000a900460ff169050919050565b606060068054600181600116156101000203166002900480601f01602080910402602001604051908101604052809291908181526020018280546001816001161561010002031660029004801561054b5780601f106105205761010080835404028352916020019161054b565b820191906000526020600020905b81548152906001019060200180831161052e57829003601f168201915b5050505050905090565b6000610560826113ae565b6105b5576040517f08c379a000000000000000000000000000000000000000000000000000000000815260040180806020018281038252602c815260200180612e02602c913960400191505060405180910390fd5b6004600083815260200190815260200160002060009054906101000a900473ffffffffffffffffffffffffffffffffffffffff169050919050565b60006105fb82610859565b90508073ffffffffffffffffffffffffffffffffffffffff168373ffffffffffffffffffffffffffffffffffffffff161415610682576040517f08c379a0000000000000000000000000000000000000000000000000000000008152600401808060200182810382526021815260200180612e866021913960400191505060405180910390fd5b8073ffffffffffffffffffffffffffffffffffffffff166106a16113cb565b73ffffffffffffffffffffffffffffffffffffffff1614806106d057506106cf816106ca6113cb565b611246565b5b610725576040517f08c379a0000000000000000000000000000000000000000000000000000000008152600401808060200182810382526038815260200180612d556038913960400191505060405180910390fd5b61072f83836113d3565b505050565b6000610740600261148c565b905090565b6107566107506113cb565b826114a1565b6107ab576040517f08c379a0000000000000000000000000000000000000000000000000000000008152600401808060200182810382526031815260200180612ea76031913960400191505060405180910390fd5b6107b6838383611595565b505050565b600061080e82600160008673ffffffffffffffffffffffffffffffffffffffff1673ffffffffffffffffffffffffffffffffffffffff1681526020019081526020016000206117d890919063ffffffff16565b905092915050565b61083183838360405180602001604052806000815250610d27565b505050565b60008061084d8360026117f290919063ffffffff16565b50905080915050919050565b600061088982604051806060016040528060298152602001612db760299139600261181e9092919063ffffffff16565b9050919050565b606060098054600181600116156101000203166002900480601f0160208091040260200160405190810160405280929190818152602001828054600181600116156101000203166002900480156109285780601f106108fd57610100808354040283529160200191610928565b820191906000526020600020905b81548152906001019060200180831161090b57829003601f168201915b5050505050905090565b60008073ffffffffffffffffffffffffffffffffffffffff168273ffffffffffffffffffffffffffffffffffffffff1614156109b9576040517f08c379a000000000000000000000000000000000000000000000000000000000815260040180806020018281038252602a815260200180612d8d602a913960400191505060405180910390fd5b610a00600160008473ffffffffffffffffffffffffffffffffffffffff1673ffffffffffffffffffffffffffffffffffffffff16815260200190815260200160002061183d565b9050919050565b600a6020528060005260406000206000915090508060000154908060010154908060020160009054906101000a900473ffffffffffffffffffffffffffffffffffffffff16908060030160009054906101000a900473ffffffffffffffffffffffffffffffffffffffff16908060040160009054906101000a900473ffffffffffffffffffffffffffffffffffffffff16908060050154908060060154905087565b600b60009054906101000a900473ffffffffffffffffffffffffffffffffffffffff1681565b606060078054600181600116156101000203166002900480601f016020809104026020016040519081016040528092919081815260200182805460018160011615610100020316600290048015610b675780601f10610b3c57610100808354040283529160200191610b67565b820191906000526020600020905b815481529060010190602001808311610b4a57829003601f168201915b5050505050905090565b610b796113cb565b73ffffffffffffffffffffffffffffffffffffffff168273ffffffffffffffffffffffffffffffffffffffff161415610c1a576040517f08c379a00000000000000000000000000000000000000000000000000000000081526004018080602001828103825260198152602001807f4552433732313a20617070726f766520746f2063616c6c65720000000000000081525060200191505060405180910390fd5b8060056000610c276113cb565b73ffffffffffffffffffffffffffffffffffffffff1673ffffffffffffffffffffffffffffffffffffffff16815260200190815260200160002060008473ffffffffffffffffffffffffffffffffffffffff1673ffffffffffffffffffffffffffffffffffffffff16815260200190815260200160002060006101000a81548160ff0219169083151502179055508173ffffffffffffffffffffffffffffffffffffffff16610cd46113cb565b73ffffffffffffffffffffffffffffffffffffffff167f17307eab39ab6107e8899845ad3d59bd9653f200f220920489ca2b5937696c318360405180821515815260200191505060405180910390a35050565b610d38610d326113cb565b836114a1565b610d8d576040517f08c379a0000000000000000000000000000000000000000000000000000000008152600401808060200182810382526031815260200180612ea76031913960400191505060405180910390fd5b610d9984848484611852565b50505050565b6060610daa826113ae565b610dff576040517f08c379a000000000000000000000000000000000000000000000000000000000815260040180806020018281038252602f815260200180612e57602f913960400191505060405180910390fd5b6000600860008481526020019081526020016000208054600181600116156101000203166002900480601f016020809104026020016040519081016040528092919081815260200182805460018160011615610100020316600290048015610ea85780601f10610e7d57610100808354040283529160200191610ea8565b820191906000526020600020905b815481529060010190602001808311610e8b57829003601f168201915b505050505090506000610eb9610890565b9050600081511415610ecf57819250505061106b565b600082511115610fa05780826040516020018083805190602001908083835b60208310610f115780518252602082019150602081019050602083039250610eee565b6001836020036101000a03801982511681845116808217855250505050505090500182805190602001908083835b60208310610f625780518252602082019150602081019050602083039250610f3f565b6001836020036101000a038019825116818451168082178552505050505050905001925050506040516020818303038152906040529250505061106b565b80610faa856118c4565b6040516020018083805190602001908083835b60208310610fe05780518252602082019150602081019050602083039250610fbd565b6001836020036101000a03801982511681845116808217855250505050505090500182805190602001908083835b60208310611031578051825260208201915060208101905060208303925061100e565b6001836020036101000a03801982511681845116808217855250505050505090500192505050604051602081830303815290604052925050505b919050565b600b60009054906101000a900473ffffffffffffffffffffffffffffffffffffffff1673ffffffffffffffffffffffffffffffffffffffff163373ffffffffffffffffffffffffffffffffffffffff1614611100576040517f08c379a00000000000000000000000000000000000000000000000000000000081526004016110f790612a3e565b60405180910390fd5b61110a3388611a0b565b6000600a60008981526020019081526020016000209050878160000181905550868160010181905550858160020160006101000a81548173ffffffffffffffffffffffffffffffffffffffff021916908373ffffffffffffffffffffffffffffffffffffffff160217905550848160030160006101000a81548173ffffffffffffffffffffffffffffffffffffffff021916908373ffffffffffffffffffffffffffffffffffffffff160217905550838160040160006101000a81548173ffffffffffffffffffffffffffffffffffffffff021916908373ffffffffffffffffffffffffffffffffffffffff16021790555082816005018190555081816006018190555086887f8a9dcf4e150b1153011b29fec302d5be0c13e84fa8f56ab78587f778a32a90dd60405160405180910390a35050505050505050565b6000600560008473ffffffffffffffffffffffffffffffffffffffff1673ffffffffffffffffffffffffffffffffffffffff16815260200190815260200160002060008373ffffffffffffffffffffffffffffffffffffffff1673ffffffffffffffffffffffffffffffffffffffff16815260200190815260200160002060009054906101000a900460ff16905092915050565b600b60009054906101000a900473ffffffffffffffffffffffffffffffffffffffff1673ffffffffffffffffffffffffffffffffffffffff163373ffffffffffffffffffffffffffffffffffffffff161461136a576040517f08c379a000000000000000000000000000000000000000000000000000000000815260040161136190612a3e565b60405180910390fd5b80600b60006101000a81548173ffffffffffffffffffffffffffffffffffffffff021916908373ffffffffffffffffffffffffffffffffffffffff16021790555050565b60006113c4826002611bff90919063ffffffff16565b9050919050565b600033905090565b816004600083815260200190815260200160002060006101000a81548173ffffffffffffffffffffffffffffffffffffffff021916908373ffffffffffffffffffffffffffffffffffffffff160217905550808273ffffffffffffffffffffffffffffffffffffffff1661144683610859565b73ffffffffffffffffffffffffffffffffffffffff167f8c5be1e5ebec7d5bd14f71427d1e84f3dd0314c0f7b2291e5b200ac8c7c3b92560405160405180910390a45050565b600061149a82600001611c19565b9050919050565b60006114ac826113ae565b611501576040517f08c379a000000000000000000000000000000000000000000000000000000000815260040180806020018281038252602c815260200180612d29602c913960400191505060405180910390fd5b600061150c83610859565b90508073ffffffffffffffffffffffffffffffffffffffff168473ffffffffffffffffffffffffffffffffffffffff16148061157b57508373ffffffffffffffffffffffffffffffffffffffff1661156384610555565b73ffffffffffffffffffffffffffffffffffffffff16145b8061158c575061158b8185611246565b5b91505092915050565b8273ffffffffffffffffffffffffffffffffffffffff166115b582610859565b73ffffffffffffffffffffffffffffffffffffffff1614611621576040517f08c379a0000000000000000000000000000000000000000000000000000000008152600401808060200182810382526029815260200180612e2e6029913960400191505060405180910390fd5b600073ffffffffffffffffffffffffffffffffffffffff168273ffffffffffffffffffffffffffffffffffffffff1614156116a7576040517f08c379a0000000000000000000000000000000000000000000000000000000008152600401808060200182810382526024815260200180612cdf6024913960400191505060405180910390fd5b6116b2838383611c2a565b6116bd6000826113d3565b61170e81600160008673ffffffffffffffffffffffffffffffffffffffff1673ffffffffffffffffffffffffffffffffffffffff168152602001908152602001600020611c2f90919063ffffffff16565b5061176081600160008573ffffffffffffffffffffffffffffffffffffffff1673ffffffffffffffffffffffffffffffffffffffff168152602001908152602001600020611c4990919063ffffffff16565b5061177781836002611c639092919063ffffffff16565b50808273ffffffffffffffffffffffffffffffffffffffff168473ffffffffffffffffffffffffffffffffffffffff167fddf252ad1be2c89b69c2b068fc378daa952ba7f163c4a11628f55a4df523b3ef60405160405180910390a4505050565b60006117e78360000183611c98565b60001c905092915050565b6000806000806118058660000186611d1b565b915091508160001c8160001c9350935050509250929050565b6000611831846000018460001b84611db4565b60001c90509392505050565b600061184b82600001611eaa565b9050919050565b61185d848484611595565b61186984848484611ebb565b6118be576040517f08c379a0000000000000000000000000000000000000000000000000000000008152600401808060200182810382526032815260200180612cad6032913960400191505060405180910390fd5b50505050565b6060600082141561190c576040518060400160405280600181526020017f30000000000000000000000000000000000000000000000000000000000000008152509050611a06565b600082905060005b60008214611936578080600101915050600a828161192e57fe5b049150611914565b60008167ffffffffffffffff8111801561194f57600080fd5b506040519080825280601f01601f1916602001820160405280156119825781602001600182028036833780820191505090505b50905060006001830390508593505b600084146119fe57600a84816119a357fe5b0660300160f81b828280600190039350815181106119bd57fe5b60200101907effffffffffffffffffffffffffffffffffffffffffffffffffffffffffffff1916908160001a905350600a84816119f657fe5b049350611991565b819450505050505b919050565b600073ffffffffffffffffffffffffffffffffffffffff168273ffffffffffffffffffffffffffffffffffffffff161415611aae576040517f08c379a00000000000000000000000000000000000000000000000000000000081526004018080602001828103825260208152602001807f4552433732313a206d696e7420746f20746865207a65726f206164647265737381525060200191505060405180910390fd5b611ab7816113ae565b15611b2a576040517f08c379a000000000000000000000000000000000000000000000000000000000815260040180806020018281038252601c8152602001807f4552433732313a20746f6b656e20616c7265616479206d696e7465640000000081525060200191505060405180910390fd5b611b3660008383611c2a565b611b8781600160008573ffffffffffffffffffffffffffffffffffffffff1673ffffffffffffffffffffffffffffffffffffffff168152602001908152602001600020611c4990919063ffffffff16565b50611b9e81836002611c639092919063ffffffff16565b50808273ffffffffffffffffffffffffffffffffffffffff16600073ffffffffffffffffffffffffffffffffffffffff167fddf252ad1be2c89b69c2b068fc378daa952ba7f163c4a11628f55a4df523b3ef60405160405180910390a45050565b6000611c11836000018360001b6120d4565b905092915050565b600081600001805490509050919050565b505050565b6000611c41836000018360001b6120f7565b905092915050565b6000611c5b836000018360001b6121df565b905092915050565b6000611c8f846000018460001b8473ffffffffffffffffffffffffffffffffffffffff1660001b61224f565b90509392505050565b600081836000018054905011611cf9576040517f08c379a0000000000000000000000000000000000000000000000000000000008152600401808060200182810382526022815260200180612c8b6022913960400191505060405180910390fd5b826000018281548110611d0857fe5b9060005260206000200154905092915050565b60008082846000018054905011611d7d576040517f08c379a0000000000000000000000000000000000000000000000000000000008152600401808060200182810382526022815260200180612de06022913960400191505060405180910390fd5b6000846000018481548110611d8e57fe5b906000526020600020906002020190508060000154816001015492509250509250929050565b60008084600101600085815260200190815260200160002054905060008114158390611e7b576040517f08c379a00000000000000000000000000000000000000000000000000000000081526004018080602001828103825283818151815260200191508051906020019080838360005b83811015611e40578082015181840152602081019050611e25565b50505050905090810190601f168015611e6d5780820380516001836020036101000a031916815260200191505b509250505060405180910390fd5b50846000016001820381548110611e8e57fe5b9060005260206000209060020201600101549150509392505050565b600081600001805490509050919050565b6000611edc8473ffffffffffffffffffffffffffffffffffffffff1661232b565b611ee957600190506120cc565b600061205363150b7a0260e01b611efe6113cb565b888787604051602401808573ffffffffffffffffffffffffffffffffffffffff1681526020018473ffffffffffffffffffffffffffffffffffffffff16815260200183815260200180602001828103825283818151815260200191508051906020019080838360005b83811015611f82578082015181840152602081019050611f67565b50505050905090810190601f168015611faf5780820380516001836020036101000a031916815260200191505b5095505050505050604051602081830303815290604052907bffffffffffffffffffffffffffffffffffffffffffffffffffffffff19166020820180517bffffffffffffffffffffffffffffffffffffffffffffffffffffffff8381831617835250505050604051806060016040528060328152602001612cad603291398773ffffffffffffffffffffffffffffffffffffffff1661233e9092919063ffffffff16565b9050600081806020019051602081101561206c57600080fd5b8101908080519060200190929190505050905063150b7a0260e01b7bffffffffffffffffffffffffffffffffffffffffffffffffffffffff1916817bffffffffffffffffffffffffffffffffffffffffffffffffffffffff191614925050505b949350505050565b600080836001016000848152602001908152602001600020541415905092915050565b600080836001016000848152602001908152602001600020549050600081146121d3576000600182039050600060018660000180549050039050600086600001828154811061214257fe5b906000526020600020015490508087600001848154811061215f57fe5b906000526020600020018190555060018301876001016000838152602001908152602001600020819055508660000180548061219757fe5b600190038181906000526020600020016000905590558660010160008781526020019081526020016000206000905560019450505050506121d9565b60009150505b92915050565b60006121eb8383612356565b612244578260000182908060018154018082558091505060019003906000526020600020016000909190919091505582600001805490508360010160008481526020019081526020016000208190555060019050612249565b600090505b92915050565b60008084600101600085815260200190815260200160002054905060008114156122f657846000016040518060400160405280868152602001858152509080600181540180825580915050600190039060005260206000209060020201600090919091909150600082015181600001556020820151816001015550508460000180549050856001016000868152602001908152602001600020819055506001915050612324565b8285600001600183038154811061230957fe5b90600052602060002090600202016001018190555060009150505b9392505050565b600080823b905060008111915050919050565b606061234d8484600085612379565b90509392505050565b600080836001016000848152602001908152602001600020541415905092915050565b6060824710156123d4576040517f08c379a0000000000000000000000000000000000000000000000000000000008152600401808060200182810382526026815260200180612d036026913960400191505060405180910390fd5b6123dd8561232b565b61244f576040517f08c379a000000000000000000000000000000000000000000000000000000000815260040180806020018281038252601d8152602001807f416464726573733a2063616c6c20746f206e6f6e2d636f6e747261637400000081525060200191505060405180910390fd5b6000808673ffffffffffffffffffffffffffffffffffffffff1685876040518082805190602001908083835b6020831061249e578051825260208201915060208101905060208303925061247b565b6001836020036101000a03801982511681845116808217855250505050505090500191505060006040518083038185875af1925050503d8060008114612500576040519150601f19603f3d011682016040523d82523d6000602084013e612505565b606091505b5091509150612515828286612521565b92505050949350505050565b60608315612531578290506125e6565b6000835111156125445782518084602001fd5b816040517f08c379a00000000000000000000000000000000000000000000000000000000081526004018080602001828103825283818151815260200191508051906020019080838360005b838110156125ab578082015181840152602081019050612590565b50505050905090810190601f1680156125d85780820380516001836020036101000a031916815260200191505b509250505060405180910390fd5b9392505050565b60006126006125fb84612b19565b612ae8565b90508281526020810184848401111561261857600080fd5b612623848285612bd9565b509392505050565b60008135905061263a81612c2e565b92915050565b60008135905061264f81612c45565b92915050565b60008135905061266481612c5c565b92915050565b600082601f83011261267b57600080fd5b813561268b8482602086016125ed565b91505092915050565b6000813590506126a381612c73565b92915050565b6000602082840312156126bb57600080fd5b60006126c98482850161262b565b91505092915050565b600080604083850312156126e557600080fd5b60006126f38582860161262b565b92505060206127048582860161262b565b9150509250929050565b60008060006060848603121561272357600080fd5b60006127318682870161262b565b93505060206127428682870161262b565b925050604061275386828701612694565b9150509250925092565b6000806000806080858703121561277357600080fd5b60006127818782880161262b565b94505060206127928782880161262b565b93505060406127a387828801612694565b925050606085013567ffffffffffffffff8111156127c057600080fd5b6127cc8782880161266a565b91505092959194509250565b600080604083850312156127eb57600080fd5b60006127f98582860161262b565b925050602061280a85828601612640565b9150509250929050565b6000806040838503121561282757600080fd5b60006128358582860161262b565b925050602061284685828601612694565b9150509250929050565b60006020828403121561286257600080fd5b600061287084828501612655565b91505092915050565b60006020828403121561288b57600080fd5b600061289984828501612694565b91505092915050565b600080600080600080600060e0888a0312156128bd57600080fd5b60006128cb8a828b01612694565b97505060206128dc8a828b01612694565b96505060406128ed8a828b0161262b565b95505060606128fe8a828b0161262b565b945050608061290f8a828b0161262b565b93505060a06129208a828b01612694565b92505060c06129318a828b01612694565b91505092959891949750929550565b61294981612b65565b82525050565b61295881612b77565b82525050565b600061296982612b49565b6129738185612b54565b9350612983818560208601612be8565b61298c81612c1d565b840191505092915050565b60006129a4600983612b54565b91507f4e4f545f4f574e455200000000000000000000000000000000000000000000006000830152602082019050919050565b6129e081612bcf565b82525050565b60006020820190506129fb6000830184612940565b92915050565b6000602082019050612a16600083018461294f565b92915050565b60006020820190508181036000830152612a36818461295e565b905092915050565b60006020820190508181036000830152612a5781612997565b9050919050565b6000602082019050612a7360008301846129d7565b92915050565b600060e082019050612a8e600083018a6129d7565b612a9b60208301896129d7565b612aa86040830188612940565b612ab56060830187612940565b612ac26080830186612940565b612acf60a08301856129d7565b612adc60c08301846129d7565b98975050505050505050565b6000604051905081810181811067ffffffffffffffff82111715612b0f57612b0e612c1b565b5b8060405250919050565b600067ffffffffffffffff821115612b3457612b33612c1b565b5b601f19601f8301169050602081019050919050565b600081519050919050565b600082825260208201905092915050565b6000612b7082612baf565b9050919050565b60008115159050919050565b60007fffffffff0000000000000000000000000000000000000000000000000000000082169050919050565b600073ffffffffffffffffffffffffffffffffffffffff82169050919050565b6000819050919050565b82818337600083830152505050565b60005b83811015612c06578082015181840152602081019050612beb565b83811115612c15576000848401525b50505050565bfe5b6000601f19601f8301169050919050565b612c3781612b65565b8114612c4257600080fd5b50565b612c4e81612b77565b8114612c5957600080fd5b50565b612c6581612b83565b8114612c7057600080fd5b50565b612c7c81612bcf565b8114612c8757600080fd5b5056fe456e756d657261626c655365743a20696e646578206f7574206f6620626f756e64734552433732313a207472616e7366657220746f206e6f6e20455243373231526563656976657220696d706c656d656e7465724552433732313a207472616e7366657220746f20746865207a65726f2061646472657373416464726573733a20696e73756666696369656e742062616c616e636520666f722063616c6c4552433732313a206f70657261746f7220717565727920666f72206e6f6e6578697374656e7420746f6b656e4552433732313a20617070726f76652063616c6c6572206973206e6f74206f776e6572206e6f7220617070726f76656420666f7220616c6c4552433732313a2062616c616e636520717565727920666f7220746865207a65726f20616464726573734552433732313a206f776e657220717565727920666f72206e6f6e6578697374656e7420746f6b656e456e756d657261626c654d61703a20696e646578206f7574206f6620626f756e64734552433732313a20617070726f76656420717565727920666f72206e6f6e6578697374656e7420746f6b656e4552433732313a207472616e73666572206f6620746f6b656e2074686174206973206e6f74206f776e4552433732314d657461646174613a2055524920717565727920666f72206e6f6e6578697374656e7420746f6b656e4552433732313a20617070726f76616c20746f2063757272656e74206f776e65724552433732313a207472616e736665722063616c6c6572206973206e6f74206f776e6572206e6f7220617070726f766564a264697066735822122093d6e98b7bd794d74e01006579b6973fae7c9005b5a9c193723acf1536d9b16964736f6c63430007060033",
  "linkReferences": {},
  "deployedLinkReferences": {}
}