{
  "_format": "hh-sol-artifact-1",
  "contractName": "L1Oracle",
  "sourceName": "contracts/L1Oracle.sol",
  "abi": [
    {
      "inputs": [
        {
          "internalType": "address",
          "name": "_ctc",
          "type": "address"
        },
        {
          "internalType": "address",
          "name": "_cToken",
          "type": "address"
        }
      ],
      "stateMutability": "nonpayable",
      "type": "constructor"
    },
    {
      "inputs": [],
      "name": "claimableToken",
      "outputs": [
        {
          "internalType": "contract L1ClaimableToken",
          "name": "",
          "type": "address"
        }
      ],
      "stateMutability": "view",
      "type": "function"
    },
    {
      "inputs": [],
      "name": "ctc",
      "outputs": [
        {
          "internalType": "contract iOVM_CanonicalTransactionChain",
          "name": "",
          "type": "address"
        }
      ],
      "stateMutability": "view",
      "type": "function"
    },
    {
      "inputs": [
        {
          "internalType": "uint256",
          "name": "",
          "type": "uint256"
        }
      ],
      "name": "minted",
      "outputs": [
        {
          "internalType": "bool",
          "name": "",
          "type": "bool"
        }
      ],
      "stateMutability": "view",
      "type": "function"
    },
    {
      "inputs": [
        {
          "internalType": "uint256",
          "name": "l2TxIndex",
          "type": "uint256"
        },
        {
          "internalType": "uint256",
          "name": "chainId",
          "type": "uint256"
        },
        {
          "components": [
            {
              "internalType": "uint256",
              "name": "timestamp",
              "type": "uint256"
            },
            {
              "internalType": "uint256",
              "name": "blockNumber",
              "type": "uint256"
            },
            {
              "internalType": "enum Lib_OVMCodec.QueueOrigin",
              "name": "l1QueueOrigin",
              "type": "uint8"
            },
            {
              "internalType": "address",
              "name": "l1TxOrigin",
              "type": "address"
            },
            {
              "internalType": "address",
              "name": "entrypoint",
              "type": "address"
            },
            {
              "internalType": "uint256",
              "name": "gasLimit",
              "type": "uint256"
            },
            {
              "internalType": "bytes",
              "name": "data",
              "type": "bytes"
            }
          ],
          "internalType": "struct Lib_OVMCodec.Transaction",
          "name": "_transaction",
          "type": "tuple"
        },
        {
          "components": [
            {
              "internalType": "bool",
              "name": "isSequenced",
              "type": "bool"
            },
            {
              "internalType": "uint256",
              "name": "queueIndex",
              "type": "uint256"
            },
            {
              "internalType": "uint256",
              "name": "timestamp",
              "type": "uint256"
            },
            {
              "internalType": "uint256",
              "name": "blockNumber",
              "type": "uint256"
            },
            {
              "internalType": "bytes",
              "name": "txData",
              "type": "bytes"
            }
          ],
          "internalType": "struct Lib_OVMCodec.TransactionChainElement",
          "name": "_txChainElement",
          "type": "tuple"
        },
        {
          "components": [
            {
              "internalType": "uint256",
              "name": "batchIndex",
              "type": "uint256"
            },
            {
              "internalType": "bytes32",
              "name": "batchRoot",
              "type": "bytes32"
            },
            {
              "internalType": "uint256",
              "name": "batchSize",
              "type": "uint256"
            },
            {
              "internalType": "uint256",
              "name": "prevTotalElements",
              "type": "uint256"
            },
            {
              "internalType": "bytes",
              "name": "extraData",
              "type": "bytes"
            }
          ],
          "internalType": "struct Lib_OVMCodec.ChainBatchHeader",
          "name": "_batchHeader",
          "type": "tuple"
        },
        {
          "components": [
            {
              "internalType": "uint256",
              "name": "index",
              "type": "uint256"
            },
            {
              "internalType": "bytes32[]",
              "name": "siblings",
              "type": "bytes32[]"
            }
          ],
          "internalType": "struct Lib_OVMCodec.ChainInclusionProof",
          "name": "_inclusionProof",
          "type": "tuple"
        }
      ],
      "name": "processFastWithdrawal",
      "outputs": [],
      "stateMutability": "nonpayable",
      "type": "function"
    },
    {
      "inputs": [
        {
          "internalType": "address",
          "name": "operator",
          "type": "address"
        },
        {
          "internalType": "bool",
          "name": "approved",
          "type": "bool"
        }
      ],
      "name": "setApprovalForAll",
      "outputs": [],
      "stateMutability": "nonpayable",
      "type": "function"
    },
    {
      "inputs": [],
      "name": "tokenId",
      "outputs": [
        {
          "internalType": "uint256",
          "name": "",
          "type": "uint256"
        }
      ],
      "stateMutability": "view",
      "type": "function"
    }
  ],
  "bytecode": "0x60806040526040518060400160405280600a81526020017f307837303930666439300000000000000000000000000000000000000000000081525060039080519060200190620000519291906200010e565b503480156200005f57600080fd5b5060405162002778380380620027788339818101604052810190620000859190620001db565b816000806101000a81548173ffffffffffffffffffffffffffffffffffffffff021916908373ffffffffffffffffffffffffffffffffffffffff16021790555080600160006101000a81548173ffffffffffffffffffffffffffffffffffffffff021916908373ffffffffffffffffffffffffffffffffffffffff16021790555050506200026a565b828054600181600116156101000203166002900490600052602060002090601f01602090048101928262000146576000855562000192565b82601f106200016157805160ff191683800117855562000192565b8280016001018555821562000192579182015b828111156200019157825182559160200191906001019062000174565b5b509050620001a19190620001a5565b5090565b5b80821115620001c0576000816000905550600101620001a6565b5090565b600081519050620001d58162000250565b92915050565b60008060408385031215620001ef57600080fd5b6000620001ff85828601620001c4565b92505060206200021285828601620001c4565b9150509250929050565b6000620002298262000230565b9050919050565b600073ffffffffffffffffffffffffffffffffffffffff82169050919050565b6200025b816200021c565b81146200026757600080fd5b50565b6124fe806200027a6000396000f3fe608060405234801561001057600080fd5b50600436106100625760003560e01c806307f775ee1461006757806317d70f7c146100835780637dc0bf3f146100a1578063a22cb465146100d1578063c74f8905146100ed578063f6d6d5aa1461010b575b600080fd5b610081600480360381019061007c9190611ac9565b610129565b005b61008b61042c565b604051610098919061213d565b60405180910390f35b6100bb60048036038101906100b69190611aa0565b610432565b6040516100c8919061200b565b60405180910390f35b6100eb60048036038101906100e69190611a3b565b610452565b005b6100f56104e5565b6040516101029190612041565b60405180910390f35b610113610509565b6040516101209190612026565b60405180910390f35b6000826060015190506000826000015190506000610150828461052f90919063ffffffff16565b9050808914610194576040517f08c379a000000000000000000000000000000000000000000000000000000000815260040161018b9061209c565b60405180910390fd5b6004600082815260200190815260200160002060009054906101000a900460ff16156101f5576040517f08c379a00000000000000000000000000000000000000000000000000000000081526004016101ec906120bc565b60405180910390fd5b60008054906101000a900473ffffffffffffffffffffffffffffffffffffffff1673ffffffffffffffffffffffffffffffffffffffff16634de569ce888888886040518563ffffffff1660e01b815260040161025494939291906120dc565b60206040518083038186803b15801561026c57600080fd5b505afa158015610280573d6000803e3d6000fd5b505050506040513d601f19601f820116820180604052508101906102a49190611a77565b6102e3576040517f08c379a00000000000000000000000000000000000000000000000000000000081526004016102da9061207c565b60405180910390fd5b60008760c00151905060006102f8828b6105b7565b905060008160a001519050600061031282600060046107c3565b905060006103218360046109ad565b90506000806000806000610334866109e5565b94509450945094509450600160009054906101000a900473ffffffffffffffffffffffffffffffffffffffff1673ffffffffffffffffffffffffffffffffffffffff1663cf7556896002548d88888888886040518863ffffffff1660e01b81526004016103a79796959493929190612158565b600060405180830381600087803b1580156103c157600080fd5b505af11580156103d5573d6000803e3d6000fd5b505050506001600460008d815260200190815260200160002060006101000a81548160ff02191690831515021790555060026000815480929190600101919050555050505050505050505050505050505050505050565b60025481565b60046020528060005260406000206000915054906101000a900460ff1681565b600160009054906101000a900473ffffffffffffffffffffffffffffffffffffffff1673ffffffffffffffffffffffffffffffffffffffff1663a22cb46583836040518363ffffffff1660e01b81526004016104af929190611fe2565b600060405180830381600087803b1580156104c957600080fd5b505af11580156104dd573d6000803e3d6000fd5b505050505050565b60008054906101000a900473ffffffffffffffffffffffffffffffffffffffff1681565b600160009054906101000a900473ffffffffffffffffffffffffffffffffffffffff1681565b6000808284019050838110156105ad576040517f08c379a000000000000000000000000000000000000000000000000000000000815260040180806020018281038252601b8152602001807f536166654d6174683a206164646974696f6e206f766572666c6f77000000000081525060200191505060405180910390fd5b8091505092915050565b6105bf611443565b60006105ca84610a3d565b905060006105eb826006815181106105de57fe5b6020026020010151610a57565b905060006023856002028360ff160303905060028160ff1610610643576040517f08c379a000000000000000000000000000000000000000000000000000000000815260040161063a9061205c565b60405180910390fd5b6000806106638560038151811061065657fe5b6020026020010151610a6c565b511490506040518061018001604052806106908660008151811061068357fe5b6020026020010151610a57565b81526020016106b2866001815181106106a557fe5b6020026020010151610a57565b81526020016106d4866002815181106106c757fe5b6020026020010151610a57565b81526020016106f6866003815181106106e957fe5b6020026020010151610b27565b73ffffffffffffffffffffffffffffffffffffffff16815260200161072e8660048151811061072157fe5b6020026020010151610a57565b81526020016107508660058151811061074357fe5b6020026020010151610a6c565b81526020018460ff16815260200161077b8660078151811061076e57fe5b6020026020010151610bca565b815260200161079d8660088151811061079057fe5b6020026020010151610bca565b81526020018781526020018360ff16815260200182151581525094505050505092915050565b606081601f8301101561083e576040517f08c379a000000000000000000000000000000000000000000000000000000000815260040180806020018281038252600e8152602001807f736c6963655f6f766572666c6f7700000000000000000000000000000000000081525060200191505060405180910390fd5b8282840110156108b6576040517f08c379a000000000000000000000000000000000000000000000000000000000815260040180806020018281038252600e8152602001807f736c6963655f6f766572666c6f7700000000000000000000000000000000000081525060200191505060405180910390fd5b8183018451101561092f576040517f08c379a00000000000000000000000000000000000000000000000000000000081526004018080602001828103825260118152602001807f736c6963655f6f75744f66426f756e647300000000000000000000000000000081525060200191505060405180910390fd5b606082156000811461095057604051915060008252602082016040526109a1565b6040519150601f8416801560200281840101858101878315602002848b0101015b8183101561098e5780518352602083019250602081019050610971565b50868552601f19601f8301166040525050505b50809150509392505050565b6060825182106109ce576040518060200160405280600081525090506109df565b6109dc8383848651036107c3565b90505b92915050565b60008060008060008060008060008060008060008d806020019051810190610a0d9190611971565b9750975097509750975097509750975087878786869c509c509c509c509c50505050505050505091939590929450565b6060610a50610a4b83610d1b565b610d49565b9050919050565b6000610a6282610bca565b60001c9050919050565b60606000806000610a7c85610f33565b92509250925060006001811115610a8f57fe5b816001811115610a9b57fe5b14610b0e576040517f08c379a00000000000000000000000000000000000000000000000000000000081526004018080602001828103825260188152602001807f496e76616c696420524c502062797465732076616c75652e000000000000000081525060200191505060405180910390fd5b610b1d85602001518484611369565b9350505050919050565b6000600182600001511415610b3f5760009050610bc5565b6015826000015114610bb9576040517f08c379a000000000000000000000000000000000000000000000000000000000815260040180806020018281038252601a8152602001807f496e76616c696420524c5020616464726573732076616c75652e00000000000081525060200191505060405180910390fd5b610bc282610a57565b90505b919050565b6000602182600001511115610c47576040517f08c379a000000000000000000000000000000000000000000000000000000000815260040180806020018281038252601a8152602001807f496e76616c696420524c5020627974657333322076616c75652e00000000000081525060200191505060405180910390fd5b6000806000610c5585610f33565b92509250925060006001811115610c6857fe5b816001811115610c7457fe5b14610ce7576040517f08c379a000000000000000000000000000000000000000000000000000000000815260040180806020018281038252601a8152602001807f496e76616c696420524c5020627974657333322076616c75652e00000000000081525060200191505060405180910390fd5b60008386602001510190506000815190506020841015610d0e57836020036101000a810490505b8095505050505050919050565b610d236114c8565b600060208301905060405180604001604052808451815260200182815250915050919050565b6060600080610d5784610f33565b9250509150600180811115610d6857fe5b816001811115610d7457fe5b14610de7576040517f08c379a00000000000000000000000000000000000000000000000000000000081526004018080602001828103825260178152602001807f496e76616c696420524c50206c6973742076616c75652e00000000000000000081525060200191505060405180910390fd5b6000602067ffffffffffffffff81118015610e0157600080fd5b50604051908082528060200260200182016040528015610e3b57816020015b610e286114c8565b815260200190600190039081610e205790505b5090506000808490505b8660000151811015610f235760208210610eaa576040517f08c379a000000000000000000000000000000000000000000000000000000000815260040180806020018281038252602a81526020018061249f602a913960400191505060405180910390fd5b600080610ed66040518060400160405280858c60000151038152602001858c6020015101815250610f33565b509150915060405180604001604052808383018152602001848b6020015101815250858581518110610f0457fe5b6020026020010181905250600184019350808201830192505050610e45565b8183528295505050505050919050565b600080600080846000015111610fb1576040517f08c379a00000000000000000000000000000000000000000000000000000000081526004018080602001828103825260188152602001807f524c50206974656d2063616e6e6f74206265206e756c6c2e000000000000000081525060200191505060405180910390fd5b6000846020015190506000815160001a9050607f8111610fde576000600160009450945094505050611362565b60b7811161107a57600060808203905080876000015111611067576040517f08c379a00000000000000000000000000000000000000000000000000000000081526004018080602001828103825260198152602001807f496e76616c696420524c502073686f727420737472696e672e0000000000000081525060200191505060405180910390fd5b6001816000955095509550505050611362565b60bf81116111a657600060b78203905080876000015111611103576040517f08c379a000000000000000000000000000000000000000000000000000000000815260040180806020018281038252601f8152602001807f496e76616c696420524c50206c6f6e6720737472696e67206c656e6774682e0081525060200191505060405180910390fd5b6000816020036101000a6001850151049050808201886000015111611190576040517f08c379a00000000000000000000000000000000000000000000000000000000081526004018080602001828103825260188152602001807f496e76616c696420524c50206c6f6e6720737472696e672e000000000000000081525060200191505060405180910390fd5b8160010181600096509650965050505050611362565b60f7811161124257600060c0820390508087600001511161122f576040517f08c379a00000000000000000000000000000000000000000000000000000000081526004018080602001828103825260178152602001807f496e76616c696420524c502073686f7274206c6973742e00000000000000000081525060200191505060405180910390fd5b6001816001955095509550505050611362565b600060f782039050808760000151116112c3576040517f08c379a000000000000000000000000000000000000000000000000000000000815260040180806020018281038252601d8152602001807f496e76616c696420524c50206c6f6e67206c697374206c656e6774682e00000081525060200191505060405180910390fd5b6000816020036101000a6001850151049050808201886000015111611350576040517f08c379a00000000000000000000000000000000000000000000000000000000081526004018080602001828103825260168152602001807f496e76616c696420524c50206c6f6e67206c6973742e0000000000000000000081525060200191505060405180910390fd5b81600101816001965096509650505050505b9193909250565b606060008267ffffffffffffffff8111801561138457600080fd5b506040519080825280601f01601f1916602001820160405280156113b75781602001600182028036833780820191505090505b5090506000815114156113cd578091505061143c565b60008486019050600060208301905060005b602086816113e957fe5b0481101561140e578251825260208301925060208201915080806001019150506113df565b50600060016020878161141d57fe5b066020036101000a039050808251168119845116178252839450505050505b9392505050565b604051806101800160405280600081526020016000815260200160008152602001600073ffffffffffffffffffffffffffffffffffffffff1681526020016000815260200160608152602001600060ff168152602001600080191681526020016000801916815260200160008152602001600060ff1681526020016000151581525090565b604051806040016040528060008152602001600081525090565b60006114f56114f0846121f8565b6121c7565b9050808382526020820190508285602086028201111561151457600080fd5b60005b85811015611544578161152a8882611648565b845260208401935060208301925050600181019050611517565b5050509392505050565b600061156161155c84612224565b6121c7565b90508281526020810184848401111561157957600080fd5b61158484828561239b565b509392505050565b600061159f61159a84612224565b6121c7565b9050828152602081018484840111156115b757600080fd5b6115c28482856123aa565b509392505050565b6000813590506115d981612404565b92915050565b6000815190506115ee8161241b565b92915050565b600082601f83011261160557600080fd5b81356116158482602086016114e2565b91505092915050565b60008135905061162d81612432565b92915050565b60008151905061164281612432565b92915050565b60008135905061165781612449565b92915050565b600082601f83011261166e57600080fd5b813561167e84826020860161154e565b91505092915050565b600082601f83011261169857600080fd5b81516116a884826020860161158c565b91505092915050565b6000813590506116c081612460565b92915050565b600060a082840312156116d857600080fd5b6116e260a06121c7565b905060006116f284828501611932565b600083015250602061170684828501611648565b602083015250604061171a84828501611932565b604083015250606061172e84828501611932565b606083015250608082013567ffffffffffffffff81111561174e57600080fd5b61175a8482850161165d565b60808301525092915050565b60006040828403121561177857600080fd5b61178260406121c7565b9050600061179284828501611932565b600083015250602082013567ffffffffffffffff8111156117b257600080fd5b6117be848285016115f4565b60208301525092915050565b600060a082840312156117dc57600080fd5b6117e660a06121c7565b905060006117f68482850161161e565b600083015250602061180a84828501611932565b602083015250604061181e84828501611932565b604083015250606061183284828501611932565b606083015250608082013567ffffffffffffffff81111561185257600080fd5b61185e8482850161165d565b60808301525092915050565b600060e0828403121561187c57600080fd5b61188660e06121c7565b9050600061189684828501611932565b60008301525060206118aa84828501611932565b60208301525060406118be848285016116b1565b60408301525060606118d2848285016115ca565b60608301525060806118e6848285016115ca565b60808301525060a06118fa84828501611932565b60a08301525060c082013567ffffffffffffffff81111561191a57600080fd5b6119268482850161165d565b60c08301525092915050565b60008135905061194181612470565b92915050565b60008151905061195681612470565b92915050565b60008151905061196b81612487565b92915050565b600080600080600080600080610100898b03121561198e57600080fd5b600061199c8b828c016115df565b98505060206119ad8b828c016115df565b97505060406119be8b828c016115df565b96505060606119cf8b828c016115df565b95505060806119e08b828c01611947565b94505060a06119f18b828c01611947565b93505060c0611a028b828c0161195c565b92505060e089015167ffffffffffffffff811115611a1f57600080fd5b611a2b8b828c01611687565b9150509295985092959890939650565b60008060408385031215611a4e57600080fd5b6000611a5c858286016115ca565b9250506020611a6d8582860161161e565b9150509250929050565b600060208284031215611a8957600080fd5b6000611a9784828501611633565b91505092915050565b600060208284031215611ab257600080fd5b6000611ac084828501611932565b91505092915050565b60008060008060008060c08789031215611ae257600080fd5b6000611af089828a01611932565b9650506020611b0189828a01611932565b955050604087013567ffffffffffffffff811115611b1e57600080fd5b611b2a89828a0161186a565b945050606087013567ffffffffffffffff811115611b4757600080fd5b611b5389828a016117ca565b935050608087013567ffffffffffffffff811115611b7057600080fd5b611b7c89828a016116c6565b92505060a087013567ffffffffffffffff811115611b9957600080fd5b611ba589828a01611766565b9150509295509295509295565b6000611bbe8383611c64565b60208301905092915050565b611bd3816122ba565b82525050565b611be2816122ba565b82525050565b6000611bf382612264565b611bfd8185612287565b9350611c0883612254565b8060005b83811015611c39578151611c208882611bb2565b9750611c2b8361227a565b925050600181019050611c0c565b5085935050505092915050565b611c4f816122de565b82525050565b611c5e816122de565b82525050565b611c6d816122ea565b82525050565b6000611c7e8261226f565b611c888185612298565b9350611c988185602086016123aa565b611ca1816123df565b840191505092915050565b611cb581612341565b82525050565b611cc481612365565b82525050565b611cd381612389565b82525050565b6000611ce66034836122a9565b91507f4c69625f45495031353554783a205472616e73616374696f6e207369676e656460008301527f20776974682077726f6e6720636861696e2049440000000000000000000000006020830152604082019050919050565b6000611d4c600d836122a9565b91507f494e56414c49445f50524f4f46000000000000000000000000000000000000006000830152602082019050919050565b6000611d8c600d836122a9565b91507f494e56414c49445f494e444558000000000000000000000000000000000000006000830152602082019050919050565b6000611dcc600e836122a9565b91507f414c52454144595f4d494e5445440000000000000000000000000000000000006000830152602082019050919050565b600060a083016000830151611e176000860182611fc4565b506020830151611e2a6020860182611c64565b506040830151611e3d6040860182611fc4565b506060830151611e506060860182611fc4565b5060808301518482036080860152611e688282611c73565b9150508091505092915050565b6000604083016000830151611e8d6000860182611fc4565b5060208301518482036020860152611ea58282611be8565b9150508091505092915050565b600060a083016000830151611eca6000860182611c46565b506020830151611edd6020860182611fc4565b506040830151611ef06040860182611fc4565b506060830151611f036060860182611fc4565b5060808301518482036080860152611f1b8282611c73565b9150508091505092915050565b600060e083016000830151611f406000860182611fc4565b506020830151611f536020860182611fc4565b506040830151611f666040860182611cca565b506060830151611f796060860182611bca565b506080830151611f8c6080860182611bca565b5060a0830151611f9f60a0860182611fc4565b5060c083015184820360c0860152611fb78282611c73565b9150508091505092915050565b611fcd81612327565b82525050565b611fdc81612327565b82525050565b6000604082019050611ff76000830185611bd9565b6120046020830184611c55565b9392505050565b60006020820190506120206000830184611c55565b92915050565b600060208201905061203b6000830184611cac565b92915050565b60006020820190506120566000830184611cbb565b92915050565b6000602082019050818103600083015261207581611cd9565b9050919050565b6000602082019050818103600083015261209581611d3f565b9050919050565b600060208201905081810360008301526120b581611d7f565b9050919050565b600060208201905081810360008301526120d581611dbf565b9050919050565b600060808201905081810360008301526120f68187611f28565b9050818103602083015261210a8186611eb2565b9050818103604083015261211e8185611dff565b905081810360608301526121328184611e75565b905095945050505050565b60006020820190506121526000830184611fd3565b92915050565b600060e08201905061216d600083018a611fd3565b61217a6020830189611fd3565b6121876040830188611bd9565b6121946060830187611bd9565b6121a16080830186611bd9565b6121ae60a0830185611fd3565b6121bb60c0830184611fd3565b98975050505050505050565b6000604051905081810181811067ffffffffffffffff821117156121ee576121ed6123dd565b5b8060405250919050565b600067ffffffffffffffff821115612213576122126123dd565b5b602082029050602081019050919050565b600067ffffffffffffffff82111561223f5761223e6123dd565b5b601f19601f8301169050602081019050919050565b6000819050602082019050919050565b600081519050919050565b600081519050919050565b6000602082019050919050565b600082825260208201905092915050565b600082825260208201905092915050565b600082825260208201905092915050565b60006122c582612307565b9050919050565b60006122d782612307565b9050919050565b60008115159050919050565b6000819050919050565b6000819050612302826123f0565b919050565b600073ffffffffffffffffffffffffffffffffffffffff82169050919050565b6000819050919050565b600063ffffffff82169050919050565b600061234c82612353565b9050919050565b600061235e82612307565b9050919050565b600061237082612377565b9050919050565b600061238282612307565b9050919050565b6000612394826122f4565b9050919050565b82818337600083830152505050565b60005b838110156123c85780820151818401526020810190506123ad565b838111156123d7576000848401525b50505050565bfe5b6000601f19601f8301169050919050565b60028110612401576124006123dd565b5b50565b61240d816122ba565b811461241857600080fd5b50565b612424816122cc565b811461242f57600080fd5b50565b61243b816122de565b811461244657600080fd5b50565b612452816122ea565b811461245d57600080fd5b50565b6002811061246d57600080fd5b50565b61247981612327565b811461248457600080fd5b50565b61249081612331565b811461249b57600080fd5b5056fe50726f766964656420524c50206c6973742065786365656473206d6178206c697374206c656e6774682ea264697066735822122079338245be8c2d2474b381f764894adeb0aa4202ac884f72d1dfbf7f7182fd7f64736f6c63430007060033",
  "linkReferences": {},
  "deployedLinkReferences": {}
}