{
  "_format": "hh-sol-artifact-1",
  "contractName": "L2BridgeWrapper",
  "sourceName": "contracts/L2BridgeWrapper.sol",
  "abi": [
    {
      "anonymous": false,
      "inputs": [
        {
          "indexed": true,
          "internalType": "address",
          "name": "_from",
          "type": "address"
        },
        {
          "indexed": true,
          "internalType": "address",
          "name": "_to",
          "type": "address"
        },
        {
          "indexed": false,
          "internalType": "uint256",
          "name": "_amount",
          "type": "uint256"
        },
        {
          "indexed": false,
          "internalType": "uint256",
          "name": "_fee",
          "type": "uint256"
        },
        {
          "indexed": false,
          "internalType": "bytes",
          "name": "_data",
          "type": "bytes"
        }
      ],
      "name": "FastWithdrawalInitiated",
      "type": "event"
    },
    {
      "inputs": [
        {
          "internalType": "address",
          "name": "_origin",
          "type": "address"
        },
        {
          "internalType": "address",
          "name": "_l1Token",
          "type": "address"
        },
        {
          "internalType": "address",
          "name": "_l2Token",
          "type": "address"
        },
        {
          "internalType": "address",
          "name": "_to",
          "type": "address"
        },
        {
          "internalType": "uint256",
          "name": "_amount",
          "type": "uint256"
        },
        {
          "internalType": "uint256",
          "name": "_fee",
          "type": "uint256"
        },
        {
          "internalType": "uint32",
          "name": "_l1Gas",
          "type": "uint32"
        },
        {
          "internalType": "bytes",
          "name": "_data",
          "type": "bytes"
        }
      ],
      "name": "fastWithdraw",
      "outputs": [],
      "stateMutability": "nonpayable",
      "type": "function"
    },
    {
      "inputs": [
        {
          "internalType": "address",
          "name": "_l2TokenBridge",
          "type": "address"
        },
        {
          "internalType": "address",
          "name": "_l1Oracle",
          "type": "address"
        }
      ],
      "name": "initialize",
      "outputs": [],
      "stateMutability": "nonpayable",
      "type": "function"
    },
    {
      "inputs": [],
      "name": "initialized",
      "outputs": [
        {
          "internalType": "bool",
          "name": "",
          "type": "bool"
        }
      ],
      "stateMutability": "view",
      "type": "function"
    },
    {
      "inputs": [],
      "name": "l1Oracle",
      "outputs": [
        {
          "internalType": "address",
          "name": "",
          "type": "address"
        }
      ],
      "stateMutability": "view",
      "type": "function"
    },
    {
      "inputs": [],
      "name": "l2TokenBridge",
      "outputs": [
        {
          "internalType": "contract iOVM_L2ERC20Bridge",
          "name": "",
          "type": "address"
        }
      ],
      "stateMutability": "view",
      "type": "function"
    }
  ],
  "bytecode": "0x60806040523480156100195760008061001661001f565b50505b5061008d565b632a2a7adb598160e01b8152600481016020815285602082015260005b8681101561005a57808601518160408401015260208101905061003c565b506020828760640184336000905af158600e01573d6000803e3d6000fd5b3d6001141558600a015760016000f35b505050565b6112668061009c6000396000f3fe60806040523480156100195760008061001661081a565b50505b50600436106100605760003560e01c8063021634251461006e578063158ef93e1461008c578063485cc955146100aa5780637090fd90146100c657806391c49bf8146100e2575b60008061006b61081a565b50505b610076610100565b6040516100839190610f2e565b60405180910390f35b61009461012d565b6040516100a19190610fdc565b60405180910390f35b6100c460048036038101906100bf9190610c10565b610147565b005b6100e060048036038101906100db9190610c55565b610276565b005b6100ea61075e565b6040516100f79190610ff7565b60405180910390f35b600160009061010d610888565b906101000a900473ffffffffffffffffffffffffffffffffffffffff1681565b600160149061013a610888565b906101000a900460ff1681565b6001601490610154610888565b906101000a900460ff16156101a7576040517f08c379a000000000000000000000000000000000000000000000000000000000815260040161019590611032565b604051809103906101a461081a565b50505b816000806101000a816101b8610888565b8173ffffffffffffffffffffffffffffffffffffffff021916908373ffffffffffffffffffffffffffffffffffffffff160217906101f46108eb565b50505080600160006101000a81610209610888565b8173ffffffffffffffffffffffffffffffffffffffff021916908373ffffffffffffffffffffffffffffffffffffffff160217906102456108eb565b50505060018060146101000a8161025a610888565b8160ff0219169083151502179061026f6108eb565b5050505050565b5a61027f610950565b73ffffffffffffffffffffffffffffffffffffffff168973ffffffffffffffffffffffffffffffffffffffff16146102f5576040517f08c379a00000000000000000000000000000000000000000000000000000000081526004016102e390611052565b604051809103906102f261081a565b50505b6001600090610302610888565b906101000a900473ffffffffffffffffffffffffffffffffffffffff1673ffffffffffffffffffffffffffffffffffffffff168673ffffffffffffffffffffffffffffffffffffffff1614610395576040517f08c379a000000000000000000000000000000000000000000000000000000000815260040161038390611072565b6040518091039061039261081a565b50505b60008773ffffffffffffffffffffffffffffffffffffffff1663c01e1bd66040518163ffffffff1660e01b8152600401602060405180830381600087806103da6109ad565b1580156103ef576000806103ec61081a565b50505b505a6103f9610a10565b505050505050158015610419573d6000803e3d600061041661081a565b50505b505050506040513d601f19601f8201168201806040525081019061043d9190610bde565b90508873ffffffffffffffffffffffffffffffffffffffff168173ffffffffffffffffffffffffffffffffffffffff16146104b6576040517f08c379a00000000000000000000000000000000000000000000000000000000081526004016104a490611012565b604051809103906104b361081a565b50505b60006104c28787610789565b90508873ffffffffffffffffffffffffffffffffffffffff166323b872dd5a6104e9610950565b5a63996d79a5598160e01b8152602081600483336000905af158600e01573d6000803e3d6000fd5b3d6001141558600a015760016000f35b8051925060005b604081101561054257600081830152602081019050610528565b505050846040518463ffffffff1660e01b815260040161056493929190610f49565b602060405180830381600087806105796109ad565b15801561058e5760008061058b61081a565b50505b505a610598610a10565b5050505050501580156105b8573d6000803e3d60006105b561081a565b50505b505050506040513d601f19601f820116820180604052508101906105dc9190610d35565b610624576040517f08c379a000000000000000000000000000000000000000000000000000000000815260040161061290611092565b6040518091039061062161081a565b50505b60008061062f610888565b906101000a900473ffffffffffffffffffffffffffffffffffffffff1673ffffffffffffffffffffffffffffffffffffffff1663a3a795488a8a848989896040518763ffffffff1660e01b815260040161068e96959493929190610f80565b600060405180830381600087806106a36109ad565b1580156106b8576000806106b561081a565b50505b505a6106c2610a10565b5050505050501580156106e2573d6000803e3d60006106df61081a565b50505b505050508773ffffffffffffffffffffffffffffffffffffffff168b73ffffffffffffffffffffffffffffffffffffffff167ffc778621ed40ba9f6b88741884403fa6180e9bafad81d4a2813e8f1fcb7bd24f8989888860405161074994939291906110b2565b60405180910390a35050505050505050505050565b600080610769610888565b906101000a900473ffffffffffffffffffffffffffffffffffffffff1681565b600080828401905083811015610810576040517f08c379a000000000000000000000000000000000000000000000000000000000815260040180806020018281038252601b8152602001807f536166654d6174683a206164646974696f6e206f766572666c6f7700000000008152506020019150506040518091039061080d61081a565b50505b8091505092915050565b632a2a7adb598160e01b8152600481016020815285602082015260005b86811015610855578086015181604084010152602081019050610837565b506020828760640184336000905af158600e01573d6000803e3d6000fd5b3d6001141558600a015760016000f35b505050565b6303daa959598160e01b8152836004820152602081602483336000905af158600e01573d6000803e3d6000fd5b3d6001141558600a015760016000f35b8051935060005b60408110156108e6576000818301526020810190506108cc565b505050565b6322bd64c0598160e01b8152836004820152846024820152600081604483336000905af158600e01573d6000803e3d6000fd5b3d6001141558600a015760016000f35b60005b604081101561094b57600081830152602081019050610931565b505050565b6373509064598160e01b8152602081600483336000905af158600e01573d6000803e3d6000fd5b3d6001141558600a015760016000f35b8051935060005b60408110156109a85760008183015260208101905061098e565b505050565b638435035b598160e01b8152836004820152602081602483336000905af158600e01573d6000803e3d6000fd5b3d6001141558600a015760016000f35b8051935060005b6040811015610a0b576000818301526020810190506109f1565b505050565b6385979f76598160e01b8152610a4f565b600081905081831115610a32578290505b92915050565b600081905081831015610a49578290505b92915050565b836004820152846024820152606060448201528760648201526084810160005b89811015610a8a578089015181830152602081019050610a6f565b506060828a60a40184336000905af158600e01573d6000803e3d6000fd5b3d6001141558600a015760016000f35b815160408301513d6000853e8c8c82606087013350600060045af15059610adf8e3d610a38565b8d01610aeb8187610a21565b5b82811015610b035760008152602081019050610aec565b50839e5050505050505050565b600081359050610b1f816111e6565b92915050565b600081519050610b34816111e6565b92915050565b600081519050610b4981611206565b92915050565b60008083601f840112610b6a57600080610b6761081a565b50505b8235905067ffffffffffffffff811115610b8c57600080610b8961081a565b50505b602083019150836001820283011115610bad57600080610baa61081a565b50505b9250929050565b600081359050610bc381611226565b92915050565b600081359050610bd881611246565b92915050565b600060208284031215610bf957600080610bf661081a565b50505b6000610c0784828501610b25565b91505092915050565b60008060408385031215610c2c57600080610c2961081a565b50505b6000610c3a85828601610b10565b9250506020610c4b85828601610b10565b9150509250929050565b60008060008060008060008060006101008a8c031215610c7d57600080610c7a61081a565b50505b6000610c8b8c828d01610b10565b9950506020610c9c8c828d01610b10565b9850506040610cad8c828d01610b10565b9750506060610cbe8c828d01610b10565b9650506080610ccf8c828d01610bb4565b95505060a0610ce08c828d01610bb4565b94505060c0610cf18c828d01610bc9565b93505060e08a013567ffffffffffffffff811115610d1757600080610d1461081a565b50505b610d238c828d01610b4f565b92509250509295985092959850929598565b600060208284031215610d5057600080610d4d61081a565b50505b6000610d5e84828501610b3a565b91505092915050565b610d708161116c565b82525050565b610d7f81611114565b82525050565b610d8e81611126565b82525050565b6000610da083856110f2565b9350610dad8385846111c6565b610db6836111d5565b840190509392505050565b610dca8161117e565b82525050565b6000610ddd600f83611103565b91507f494e56414c49445f4c31544f4b454e00000000000000000000000000000000006000830152602082019050919050565b6000610e1d601383611103565b91507f414c52454144595f494e495449414c495a4544000000000000000000000000006000830152602082019050919050565b6000610e5d600e83611103565b91507f494e56414c49445f4f524947494e0000000000000000000000000000000000006000830152602082019050919050565b6000610e9d601183611103565b91507f494e56414c49445f524543495049454e540000000000000000000000000000006000830152602082019050919050565b6000610edd601083611103565b91507f5452414e534645525f4641494c555245000000000000000000000000000000006000830152602082019050919050565b610f1981611152565b82525050565b610f288161115c565b82525050565b6000602082019050610f436000830184610d76565b92915050565b6000606082019050610f5e6000830186610d67565b610f6b6020830185610d76565b610f786040830184610f10565b949350505050565b600060a082019050610f956000830189610d76565b610fa26020830188610d76565b610faf6040830187610f10565b610fbc6060830186610f1f565b8181036080830152610fcf818486610d94565b9050979650505050505050565b6000602082019050610ff16000830184610d85565b92915050565b600060208201905061100c6000830184610dc1565b92915050565b6000602082019050818103600083015261102b81610dd0565b9050919050565b6000602082019050818103600083015261104b81610e10565b9050919050565b6000602082019050818103600083015261106b81610e50565b9050919050565b6000602082019050818103600083015261108b81610e90565b9050919050565b600060208201905081810360008301526110ab81610ed0565b9050919050565b60006060820190506110c76000830187610f10565b6110d46020830186610f10565b81810360408301526110e7818486610d94565b905095945050505050565b600082825260208201905092915050565b600082825260208201905092915050565b600061111f82611132565b9050919050565b60008115159050919050565b600073ffffffffffffffffffffffffffffffffffffffff82169050919050565b6000819050919050565b600063ffffffff82169050919050565b6000611177826111a2565b9050919050565b600061118982611190565b9050919050565b600061119b82611132565b9050919050565b60006111ad826111b4565b9050919050565b60006111bf82611132565b9050919050565b82818337600083830152505050565b6000601f19601f8301169050919050565b6111ef81611114565b81146112035760008061120061081a565b50505b50565b61120f81611126565b81146112235760008061122061081a565b50505b50565b61122f81611152565b81146112435760008061124061081a565b50505b50565b61124f8161115c565b81146112635760008061126061081a565b50505b5056",
  "linkReferences": {},
  "deployedLinkReferences": {}
}