{
  "_format": "hh-sol-artifact-1",
  "contractName": "L2Token",
  "sourceName": "contracts/demo-token/L2Token.sol",
  "abi": [
    {
      "inputs": [
        {
          "internalType": "address",
          "name": "_l2Bridge",
          "type": "address"
        },
        {
          "internalType": "address",
          "name": "_l1Token",
          "type": "address"
        },
        {
          "internalType": "string",
          "name": "_name",
          "type": "string"
        },
        {
          "internalType": "string",
          "name": "_symbol",
          "type": "string"
        }
      ],
      "stateMutability": "nonpayable",
      "type": "constructor"
    },
    {
      "anonymous": false,
      "inputs": [
        {
          "indexed": true,
          "internalType": "address",
          "name": "owner",
          "type": "address"
        },
        {
          "indexed": true,
          "internalType": "address",
          "name": "spender",
          "type": "address"
        },
        {
          "indexed": false,
          "internalType": "uint256",
          "name": "value",
          "type": "uint256"
        }
      ],
      "name": "Approval",
      "type": "event"
    },
    {
      "anonymous": false,
      "inputs": [
        {
          "indexed": true,
          "internalType": "address",
          "name": "_account",
          "type": "address"
        },
        {
          "indexed": false,
          "internalType": "uint256",
          "name": "_amount",
          "type": "uint256"
        }
      ],
      "name": "Burn",
      "type": "event"
    },
    {
      "anonymous": false,
      "inputs": [
        {
          "indexed": true,
          "internalType": "address",
          "name": "_account",
          "type": "address"
        },
        {
          "indexed": false,
          "internalType": "uint256",
          "name": "_amount",
          "type": "uint256"
        }
      ],
      "name": "Mint",
      "type": "event"
    },
    {
      "anonymous": false,
      "inputs": [
        {
          "indexed": true,
          "internalType": "address",
          "name": "from",
          "type": "address"
        },
        {
          "indexed": true,
          "internalType": "address",
          "name": "to",
          "type": "address"
        },
        {
          "indexed": false,
          "internalType": "uint256",
          "name": "value",
          "type": "uint256"
        }
      ],
      "name": "Transfer",
      "type": "event"
    },
    {
      "inputs": [
        {
          "internalType": "address",
          "name": "owner",
          "type": "address"
        },
        {
          "internalType": "address",
          "name": "spender",
          "type": "address"
        }
      ],
      "name": "allowance",
      "outputs": [
        {
          "internalType": "uint256",
          "name": "",
          "type": "uint256"
        }
      ],
      "stateMutability": "view",
      "type": "function"
    },
    {
      "inputs": [
        {
          "internalType": "address",
          "name": "spender",
          "type": "address"
        },
        {
          "internalType": "uint256",
          "name": "amount",
          "type": "uint256"
        }
      ],
      "name": "approve",
      "outputs": [
        {
          "internalType": "bool",
          "name": "",
          "type": "bool"
        }
      ],
      "stateMutability": "nonpayable",
      "type": "function"
    },
    {
      "inputs": [
        {
          "internalType": "address",
          "name": "account",
          "type": "address"
        }
      ],
      "name": "balanceOf",
      "outputs": [
        {
          "internalType": "uint256",
          "name": "",
          "type": "uint256"
        }
      ],
      "stateMutability": "view",
      "type": "function"
    },
    {
      "inputs": [
        {
          "internalType": "address",
          "name": "_from",
          "type": "address"
        },
        {
          "internalType": "uint256",
          "name": "_amount",
          "type": "uint256"
        }
      ],
      "name": "burn",
      "outputs": [],
      "stateMutability": "nonpayable",
      "type": "function"
    },
    {
      "inputs": [],
      "name": "decimals",
      "outputs": [
        {
          "internalType": "uint8",
          "name": "",
          "type": "uint8"
        }
      ],
      "stateMutability": "view",
      "type": "function"
    },
    {
      "inputs": [
        {
          "internalType": "address",
          "name": "spender",
          "type": "address"
        },
        {
          "internalType": "uint256",
          "name": "subtractedValue",
          "type": "uint256"
        }
      ],
      "name": "decreaseAllowance",
      "outputs": [
        {
          "internalType": "bool",
          "name": "",
          "type": "bool"
        }
      ],
      "stateMutability": "nonpayable",
      "type": "function"
    },
    {
      "inputs": [
        {
          "internalType": "address",
          "name": "spender",
          "type": "address"
        },
        {
          "internalType": "uint256",
          "name": "addedValue",
          "type": "uint256"
        }
      ],
      "name": "increaseAllowance",
      "outputs": [
        {
          "internalType": "bool",
          "name": "",
          "type": "bool"
        }
      ],
      "stateMutability": "nonpayable",
      "type": "function"
    },
    {
      "inputs": [],
      "name": "l1Token",
      "outputs": [
        {
          "internalType": "address",
          "name": "",
          "type": "address"
        }
      ],
      "stateMutability": "view",
      "type": "function"
    },
    {
      "inputs": [],
      "name": "l2Bridge",
      "outputs": [
        {
          "internalType": "address",
          "name": "",
          "type": "address"
        }
      ],
      "stateMutability": "view",
      "type": "function"
    },
    {
      "inputs": [
        {
          "internalType": "address",
          "name": "_to",
          "type": "address"
        },
        {
          "internalType": "uint256",
          "name": "_amount",
          "type": "uint256"
        }
      ],
      "name": "mint",
      "outputs": [],
      "stateMutability": "nonpayable",
      "type": "function"
    },
    {
      "inputs": [],
      "name": "name",
      "outputs": [
        {
          "internalType": "string",
          "name": "",
          "type": "string"
        }
      ],
      "stateMutability": "view",
      "type": "function"
    },
    {
      "inputs": [
        {
          "internalType": "bytes4",
          "name": "_interfaceId",
          "type": "bytes4"
        }
      ],
      "name": "supportsInterface",
      "outputs": [
        {
          "internalType": "bool",
          "name": "",
          "type": "bool"
        }
      ],
      "stateMutability": "pure",
      "type": "function"
    },
    {
      "inputs": [],
      "name": "symbol",
      "outputs": [
        {
          "internalType": "string",
          "name": "",
          "type": "string"
        }
      ],
      "stateMutability": "view",
      "type": "function"
    },
    {
      "inputs": [],
      "name": "totalSupply",
      "outputs": [
        {
          "internalType": "uint256",
          "name": "",
          "type": "uint256"
        }
      ],
      "stateMutability": "view",
      "type": "function"
    },
    {
      "inputs": [
        {
          "internalType": "address",
          "name": "recipient",
          "type": "address"
        },
        {
          "internalType": "uint256",
          "name": "amount",
          "type": "uint256"
        }
      ],
      "name": "transfer",
      "outputs": [
        {
          "internalType": "bool",
          "name": "",
          "type": "bool"
        }
      ],
      "stateMutability": "nonpayable",
      "type": "function"
    },
    {
      "inputs": [
        {
          "internalType": "address",
          "name": "sender",
          "type": "address"
        },
        {
          "internalType": "address",
          "name": "recipient",
          "type": "address"
        },
        {
          "internalType": "uint256",
          "name": "amount",
          "type": "uint256"
        }
      ],
      "name": "transferFrom",
      "outputs": [
        {
          "internalType": "bool",
          "name": "",
          "type": "bool"
        }
      ],
      "stateMutability": "nonpayable",
      "type": "function"
    }
  ],
  "bytecode": "0x60806040523480156200001c57600080620000196200015c565b50505b50604051620023b9380380620023b983398181016040528101906200004291906200042d565b818181600390805190602001906200005c929190620001cc565b50806004908051906020019062000075929190620001cc565b506012600560006101000a816200008b62000298565b8160ff021916908360ff16021790620000a3620002fd565b505050505082600560016101000a81620000bc62000298565b8173ffffffffffffffffffffffffffffffffffffffff021916908373ffffffffffffffffffffffffffffffffffffffff16021790620000fa620002fd565b50505083600660006101000a816200011162000298565b8173ffffffffffffffffffffffffffffffffffffffff021916908373ffffffffffffffffffffffffffffffffffffffff160217906200014f620002fd565b50505050505050620005e4565b632a2a7adb598160e01b8152600481016020815285602082015260005b868110156200019957808601518160408401015260208101905062000179565b506020828760640184336000905af158600e01573d6000803e3d6000fd5b3d6001141558600a015760016000f35b505050565b8280620001d862000298565b600181600116156101000203166002900490600052602060002090601f016020900481019282620002185760008562000210620002fd565b505062000285565b82601f106200023e57805160ff1916838001178562000236620002fd565b505062000285565b828001600101856200024f620002fd565b5050821562000285579182015b82811115620002845782518262000272620002fd565b5050916020019190600101906200025c565b5b50905062000294919062000364565b5090565b6303daa959598160e01b8152836004820152602081602483336000905af158600e01573d6000803e3d6000fd5b3d6001141558600a015760016000f35b8051935060005b6040811015620002f857600081830152602081019050620002dc565b505050565b6322bd64c0598160e01b8152836004820152846024820152600081604483336000905af158600e01573d6000803e3d6000fd5b3d6001141558600a015760016000f35b60005b60408110156200035f5760008183015260208101905062000343565b505050565b5b808211156200038a576000816000906200037e620002fd565b50505060010162000365565b5090565b6000620003a56200039f8462000520565b620004ec565b905082815260208101848484011115620003c957600080620003c66200015c565b50505b620003d684828562000587565b509392505050565b600081519050620003ef81620005bf565b92915050565b600082601f83011262000412576000806200040f6200015c565b50505b8151620004248482602086016200038e565b91505092915050565b600080600080608085870312156200044f576000806200044c6200015c565b50505b60006200045f87828801620003de565b94505060206200047287828801620003de565b935050604085015167ffffffffffffffff8111156200049b57600080620004986200015c565b50505b620004a987828801620003f5565b925050606085015167ffffffffffffffff811115620004d257600080620004cf6200015c565b50505b620004e087828801620003f5565b91505092959194509250565b6000604051905081810181811067ffffffffffffffff82111715620005165762000515620005bd565b5b8060405250919050565b600067ffffffffffffffff8211156200053e576200053d620005bd565b5b601f19601f8301169050602081019050919050565b6000620005608262000567565b9050919050565b600073ffffffffffffffffffffffffffffffffffffffff82169050919050565b60005b83811015620005a75780820151818401526020810190506200058a565b83811115620005b7576000848401525b50505050565bfe5b620005ca8162000553565b8114620005e157600080620005de6200015c565b50505b50565b611dc580620005f46000396000f3fe6080604052348015610019576000806100166116c4565b50505b50600436106101095760003560e01c806370a08231116100a0578063a9059cbb1161006f578063a9059cbb146102e7578063ae1f6aaf14610317578063c01e1bd614610335578063dd62ed3e1461035357610109565b806370a082311461024d57806395d89b411461027d5780639dc29fac1461029b578063a457c2d7146102b757610109565b806323b872dd116100dc57806323b872dd146101b3578063313ce567146101e3578063395093511461020157806340c10f191461023157610109565b806301ffc9a71461011757806306fdde0314610147578063095ea7b31461016557806318160ddd14610195575b6000806101146116c4565b50505b610131600480360381019061012c91906119aa565b610383565b60405161013e9190611aac565b60405180910390f35b61014f610459565b60405161015c9190611ac7565b60405180910390f35b61017f600480360381019061017a9190611965565b610517565b60405161018c9190611aac565b60405180910390f35b61019d610535565b6040516101aa9190611b09565b60405180910390f35b6101cd60048036038101906101c8919061190d565b610546565b6040516101da9190611aac565b60405180910390f35b6101eb610626565b6040516101f89190611b24565b60405180910390f35b61021b60048036038101906102169190611965565b610644565b6040516102289190611aac565b60405180910390f35b61024b60048036038101906102469190611965565b6106fe565b005b61026760048036038101906102629190611896565b610802565b6040516102749190611b09565b60405180910390f35b610285610851565b6040516102929190611ac7565b60405180910390f35b6102b560048036038101906102b09190611965565b61090f565b005b6102d160048036038101906102cc9190611965565b610a13565b6040516102de9190611aac565b60405180910390f35b61030160048036038101906102fc9190611965565b610ae7565b60405161030e9190611aac565b60405180910390f35b61031f610b05565b60405161032c9190611a91565b60405180910390f35b61033d610b32565b60405161034a9190611a91565b60405180910390f35b61036d600480360381019061036891906118c8565b610b5f565b60405161037a9190611b09565b60405180910390f35b6000807f01ffc9a7a5cef8baa21ed3c5c0d7e23accb804b619e9333b597f47a0d84076e290506000639dc29fac60e01b6340c10f1960e01b63c01e1bd660e01b18189050817bffffffffffffffffffffffffffffffffffffffffffffffffffffffff1916847bffffffffffffffffffffffffffffffffffffffffffffffffffffffff191614806104505750807bffffffffffffffffffffffffffffffffffffffffffffffffffffffff1916847bffffffffffffffffffffffffffffffffffffffffffffffffffffffff1916145b92505050919050565b6060600380610466611732565b600181600116156101000203166002900480601f016020809104026020016040519081016040528092919081815260200182806104a1611732565b6001816001161561010002031660029004801561050d5780601f106104db5761010080836104cd611732565b04028352916020019161050d565b820191906000526020600020905b816104f2611732565b815290600101906020018083116104e957829003601f168201915b5050505050905090565b600061052b610524610bed565b8484610bfd565b6001905092915050565b60006002610541611732565b905090565b6000610553848484610e0f565b61061b8461055f610bed565b61061685604051806060016040528060288152602001611d0e60289139600160008b73ffffffffffffffffffffffffffffffffffffffff1673ffffffffffffffffffffffffffffffffffffffff16815260200190815260200160002060006105c5610bed565b73ffffffffffffffffffffffffffffffffffffffff1673ffffffffffffffffffffffffffffffffffffffff168152602001908152602001600020610607611732565b6111029092919063ffffffff16565b610bfd565b600190509392505050565b60006005600090610635611732565b906101000a900460ff16905090565b60006106f4610651610bed565b846106ef8560016000610662610bed565b73ffffffffffffffffffffffffffffffffffffffff1673ffffffffffffffffffffffffffffffffffffffff16815260200190815260200160002060008973ffffffffffffffffffffffffffffffffffffffff1673ffffffffffffffffffffffffffffffffffffffff1681526020019081526020016000206106e1611732565b6111c590919063ffffffff16565b610bfd565b6001905092915050565b600660009061070b611732565b906101000a900473ffffffffffffffffffffffffffffffffffffffff1673ffffffffffffffffffffffffffffffffffffffff165a610747611795565b73ffffffffffffffffffffffffffffffffffffffff16146107a6576040517f08c379a000000000000000000000000000000000000000000000000000000000815260040161079490611ae9565b604051809103906107a36116c4565b50505b6107b08282611256565b8173ffffffffffffffffffffffffffffffffffffffff167f0f6798a560793a54c3bcfe86a93cde1e73087d944c0ea20544137d4121396885826040516107f69190611b09565b60405180910390a25050565b60008060008373ffffffffffffffffffffffffffffffffffffffff1673ffffffffffffffffffffffffffffffffffffffff16815260200190815260200160002061084a611732565b9050919050565b606060048061085e611732565b600181600116156101000203166002900480601f01602080910402602001604051908101604052809291908181526020018280610899611732565b600181600116156101000203166002900480156109055780601f106108d35761010080836108c5611732565b040283529160200191610905565b820191906000526020600020905b816108ea611732565b815290600101906020018083116108e157829003601f168201915b5050505050905090565b600660009061091c611732565b906101000a900473ffffffffffffffffffffffffffffffffffffffff1673ffffffffffffffffffffffffffffffffffffffff165a610958611795565b73ffffffffffffffffffffffffffffffffffffffff16146109b7576040517f08c379a00000000000000000000000000000000000000000000000000000000081526004016109a590611ae9565b604051809103906109b46116c4565b50505b6109c18282611446565b8173ffffffffffffffffffffffffffffffffffffffff167fcc16f5dbb4873280815c1ee09dbd06736cffcc184412cf7a71a0fdb75d397ca582604051610a079190611b09565b60405180910390a25050565b6000610add610a20610bed565b84610ad885604051806060016040528060258152602001611da06025913960016000610a4a610bed565b73ffffffffffffffffffffffffffffffffffffffff1673ffffffffffffffffffffffffffffffffffffffff16815260200190815260200160002060008a73ffffffffffffffffffffffffffffffffffffffff1673ffffffffffffffffffffffffffffffffffffffff168152602001908152602001600020610ac9611732565b6111029092919063ffffffff16565b610bfd565b6001905092915050565b6000610afb610af4610bed565b8484610e0f565b6001905092915050565b6006600090610b12611732565b906101000a900473ffffffffffffffffffffffffffffffffffffffff1681565b6005600190610b3f611732565b906101000a900473ffffffffffffffffffffffffffffffffffffffff1681565b6000600160008473ffffffffffffffffffffffffffffffffffffffff1673ffffffffffffffffffffffffffffffffffffffff16815260200190815260200160002060008373ffffffffffffffffffffffffffffffffffffffff1673ffffffffffffffffffffffffffffffffffffffff168152602001908152602001600020610be5611732565b905092915050565b60005a610bf8611795565b905090565b600073ffffffffffffffffffffffffffffffffffffffff168373ffffffffffffffffffffffffffffffffffffffff161415610c8c576040517f08c379a0000000000000000000000000000000000000000000000000000000008152600401808060200182810382526024815260200180611d7c6024913960400191505060405180910390610c896116c4565b50505b600073ffffffffffffffffffffffffffffffffffffffff168273ffffffffffffffffffffffffffffffffffffffff161415610d1b576040517f08c379a0000000000000000000000000000000000000000000000000000000008152600401808060200182810382526022815260200180611cc66022913960400191505060405180910390610d186116c4565b50505b80600160008573ffffffffffffffffffffffffffffffffffffffff1673ffffffffffffffffffffffffffffffffffffffff16815260200190815260200160002060008473ffffffffffffffffffffffffffffffffffffffff1673ffffffffffffffffffffffffffffffffffffffff1681526020019081526020016000208190610da26117f2565b5050508173ffffffffffffffffffffffffffffffffffffffff168373ffffffffffffffffffffffffffffffffffffffff167f8c5be1e5ebec7d5bd14f71427d1e84f3dd0314c0f7b2291e5b200ac8c7c3b925836040518082815260200191505060405180910390a3505050565b600073ffffffffffffffffffffffffffffffffffffffff168373ffffffffffffffffffffffffffffffffffffffff161415610e9e576040517f08c379a0000000000000000000000000000000000000000000000000000000008152600401808060200182810382526025815260200180611d576025913960400191505060405180910390610e9b6116c4565b50505b600073ffffffffffffffffffffffffffffffffffffffff168273ffffffffffffffffffffffffffffffffffffffff161415610f2d576040517f08c379a0000000000000000000000000000000000000000000000000000000008152600401808060200182810382526023815260200180611c816023913960400191505060405180910390610f2a6116c4565b50505b610f38838383611633565b610faa81604051806060016040528060268152602001611ce8602691396000808773ffffffffffffffffffffffffffffffffffffffff1673ffffffffffffffffffffffffffffffffffffffff168152602001908152602001600020610f9b611732565b6111029092919063ffffffff16565b6000808573ffffffffffffffffffffffffffffffffffffffff1673ffffffffffffffffffffffffffffffffffffffff1681526020019081526020016000208190610ff26117f2565b50505061104d816000808573ffffffffffffffffffffffffffffffffffffffff1673ffffffffffffffffffffffffffffffffffffffff16815260200190815260200160002061103f611732565b6111c590919063ffffffff16565b6000808473ffffffffffffffffffffffffffffffffffffffff1673ffffffffffffffffffffffffffffffffffffffff16815260200190815260200160002081906110956117f2565b5050508173ffffffffffffffffffffffffffffffffffffffff168373ffffffffffffffffffffffffffffffffffffffff167fddf252ad1be2c89b69c2b068fc378daa952ba7f163c4a11628f55a4df523b3ef836040518082815260200191505060405180910390a3505050565b60008383111582906111b8576040517f08c379a00000000000000000000000000000000000000000000000000000000081526004018080602001828103825283818151815260200191508051906020019080838360005b83811015611174578082015181840152602081019050611159565b50505050905090810190601f1680156111a15780820380516001836020036101000a031916815260200191505b5092505050604051809103906111b56116c4565b50505b5082840390509392505050565b60008082840190508381101561124c576040517f08c379a000000000000000000000000000000000000000000000000000000000815260040180806020018281038252601b8152602001807f536166654d6174683a206164646974696f6e206f766572666c6f770000000000815250602001915050604051809103906112496116c4565b50505b8091505092915050565b600073ffffffffffffffffffffffffffffffffffffffff168273ffffffffffffffffffffffffffffffffffffffff161415611302576040517f08c379a000000000000000000000000000000000000000000000000000000000815260040180806020018281038252601f8152602001807f45524332303a206d696e7420746f20746865207a65726f206164647265737300815250602001915050604051809103906112ff6116c4565b50505b61130e60008383611633565b61132a81600261131c611732565b6111c590919063ffffffff16565b600281906113366117f2565b505050611391816000808573ffffffffffffffffffffffffffffffffffffffff1673ffffffffffffffffffffffffffffffffffffffff168152602001908152602001600020611383611732565b6111c590919063ffffffff16565b6000808473ffffffffffffffffffffffffffffffffffffffff1673ffffffffffffffffffffffffffffffffffffffff16815260200190815260200160002081906113d96117f2565b5050508173ffffffffffffffffffffffffffffffffffffffff16600073ffffffffffffffffffffffffffffffffffffffff167fddf252ad1be2c89b69c2b068fc378daa952ba7f163c4a11628f55a4df523b3ef836040518082815260200191505060405180910390a35050565b600073ffffffffffffffffffffffffffffffffffffffff168273ffffffffffffffffffffffffffffffffffffffff1614156114d5576040517f08c379a0000000000000000000000000000000000000000000000000000000008152600401808060200182810382526021815260200180611d3660219139604001915050604051809103906114d26116c4565b50505b6114e182600083611633565b61155381604051806060016040528060228152602001611ca4602291396000808673ffffffffffffffffffffffffffffffffffffffff1673ffffffffffffffffffffffffffffffffffffffff168152602001908152602001600020611544611732565b6111029092919063ffffffff16565b6000808473ffffffffffffffffffffffffffffffffffffffff1673ffffffffffffffffffffffffffffffffffffffff168152602001908152602001600020819061159b6117f2565b5050506115ba8160026115ac611732565b61163890919063ffffffff16565b600281906115c66117f2565b505050600073ffffffffffffffffffffffffffffffffffffffff168273ffffffffffffffffffffffffffffffffffffffff167fddf252ad1be2c89b69c2b068fc378daa952ba7f163c4a11628f55a4df523b3ef836040518082815260200191505060405180910390a35050565b505050565b6000828211156116b9576040517f08c379a000000000000000000000000000000000000000000000000000000000815260040180806020018281038252601e8152602001807f536166654d6174683a207375627472616374696f6e206f766572666c6f770000815250602001915050604051809103906116b66116c4565b50505b818303905092915050565b632a2a7adb598160e01b8152600481016020815285602082015260005b868110156116ff5780860151816040840101526020810190506116e1565b506020828760640184336000905af158600e01573d6000803e3d6000fd5b3d6001141558600a015760016000f35b505050565b6303daa959598160e01b8152836004820152602081602483336000905af158600e01573d6000803e3d6000fd5b3d6001141558600a015760016000f35b8051935060005b604081101561179057600081830152602081019050611776565b505050565b6373509064598160e01b8152602081600483336000905af158600e01573d6000803e3d6000fd5b3d6001141558600a015760016000f35b8051935060005b60408110156117ed576000818301526020810190506117d3565b505050565b6322bd64c0598160e01b8152836004820152846024820152600081604483336000905af158600e01573d6000803e3d6000fd5b3d6001141558600a015760016000f35b60005b604081101561185257600081830152602081019050611838565b505050565b60008135905061186681611c20565b92915050565b60008135905061187b81611c40565b92915050565b60008135905061189081611c60565b92915050565b6000602082840312156118b1576000806118ae6116c4565b50505b60006118bf84828501611857565b91505092915050565b600080604083850312156118e4576000806118e16116c4565b50505b60006118f285828601611857565b925050602061190385828601611857565b9150509250929050565b60008060006060848603121561192b576000806119286116c4565b50505b600061193986828701611857565b935050602061194a86828701611857565b925050604061195b86828701611881565b9150509250925092565b600080604083850312156119815760008061197e6116c4565b50505b600061198f85828601611857565b92505060206119a085828601611881565b9150509250929050565b6000602082840312156119c5576000806119c26116c4565b50505b60006119d38482850161186c565b91505092915050565b6119e581611b5b565b82525050565b6119f481611b6d565b82525050565b6000611a0582611b3f565b611a0f8185611b4a565b9350611a1f818560208601611bdc565b611a2881611c0f565b840191505092915050565b6000611a40602083611b4a565b91507f4f6e6c79204c32204272696467652063616e206d696e7420616e64206275726e6000830152602082019050919050565b611a7c81611bc5565b82525050565b611a8b81611bcf565b82525050565b6000602082019050611aa660008301846119dc565b92915050565b6000602082019050611ac160008301846119eb565b92915050565b60006020820190508181036000830152611ae181846119fa565b905092915050565b60006020820190508181036000830152611b0281611a33565b9050919050565b6000602082019050611b1e6000830184611a73565b92915050565b6000602082019050611b396000830184611a82565b92915050565b600081519050919050565b600082825260208201905092915050565b6000611b6682611ba5565b9050919050565b60008115159050919050565b60007fffffffff0000000000000000000000000000000000000000000000000000000082169050919050565b600073ffffffffffffffffffffffffffffffffffffffff82169050919050565b6000819050919050565b600060ff82169050919050565b60005b83811015611bfa578082015181840152602081019050611bdf565b83811115611c09576000848401525b50505050565b6000601f19601f8301169050919050565b611c2981611b5b565b8114611c3d57600080611c3a6116c4565b50505b50565b611c4981611b79565b8114611c5d57600080611c5a6116c4565b50505b50565b611c6981611bc5565b8114611c7d57600080611c7a6116c4565b50505b5056fe45524332303a207472616e7366657220746f20746865207a65726f206164647265737345524332303a206275726e20616d6f756e7420657863656564732062616c616e636545524332303a20617070726f766520746f20746865207a65726f206164647265737345524332303a207472616e7366657220616d6f756e7420657863656564732062616c616e636545524332303a207472616e7366657220616d6f756e74206578636565647320616c6c6f77616e636545524332303a206275726e2066726f6d20746865207a65726f206164647265737345524332303a207472616e736665722066726f6d20746865207a65726f206164647265737345524332303a20617070726f76652066726f6d20746865207a65726f206164647265737345524332303a2064656372656173656420616c6c6f77616e63652062656c6f77207a65726f",
  "linkReferences": {},
  "deployedLinkReferences": {}
}